:100000000C9464000C948C000C948C000C94A4064A
:100010000C94A4060C94A4060C948C000C948C00F4
:100020000C948C000C948C000C948C000C948C0020
:100030000C948C000C948C000C948C000C948C0010
:100040000C94DD040C948C000C94E7030C941904BC
:100050000C948C000C948C000C948C000C948C00F0
:100060000C948C000C948C0000000008000201002D
:100070000003040700000000000000000102040863
:100080001020408001020408102001020408102002
:10009000040404040404040402020202020203032E
:1000A00003030303000000002300260029000000D2
:1000B0000000250028002B0000000000240027007D
:1000C0002A008E004904950011241FBECFEFD8E00E
:1000D000DEBFCDBF11E0A0E0B1E0E2E8F2E102C096
:1000E00005900D92AE37B107D9F723E0AEE7B1E046
:1000F00001C01D92AB35B207E1F710E0C3E6D0E0D6
:1001000004C02197FE010E942E09C136D107C9F70C
:100110000E9477040C9434090C94000020E043E022
:1001200062E082E592E00C94770782E592E00C941D
:100130001E07CF93DF93C8E0D1E0688182E592E0AB
:100140000E94E405698182E592E0DF91CF910C94F1
:10015000E405CF93DF938130910529F0029781F474
:10016000C0E0D1E004C0DF91CF910C949900699177
:1001700082E592E00E94E40581E0C830D807B9F733
:10018000DF91CF91089582E592E00E944D06892B80
:10019000D1F382E592E00E94C305909351028093CF
:1001A0005002089582E592E00E944D06892B81F469
:1001B0000E94990064EC79E080E090E00E944C0598
:1001C000F1CF0E94C3008B34910541F00E94D20010
:1001D0000E94C3008F349105C9F7F3CF089526E03C
:1001E00040E855E260E070E081E792E00E947F0322
:1001F00040E855E260E070E082E592E00E94A207EC
:100200008FEF87B90C94D200EF92FF920F931F9358
:10021000CF93DF93EC010E94C300CA97E1F78E01F0
:100220007E0180E2E80EF11C0E94C300F801819378
:100230008F01EE15FF05C1F70E94C3008D97E1F70E
:100240000E94C30088A30E94C30089A30E94C30028
:100250008AA3CE01DF91CF911F910F91FF90EF9074
:100260000895EF92FF920F931F93CF93DF93CDB733
:10027000DEB76AE071E081E792E00E94CB0462E1C0
:1002800071E081E792E00E94C504CE0109967C01ED
:100290008E01075D1F4FF70161917F0181E792E0B9
:1002A0000E9416030E151F05B1F76FE571E081E797
:1002B00092E00E94CB0469E171E081E792E00E9444
:1002C000C50460E271E081E792E00E94C5047E010E
:1002D000FCE2EF0EF11CF80161918F0181E792E0E1
:1002E0000E941603E016F106B1F762E271E081E7C1
:1002F00092E00E94CB04DF91CF911F910F91FF906C
:10030000EF9008950F931F93CF93DF93CDB7DEB790
:10031000A3970FB6F894DEBF0FBECDBF8C0183301C
:10032000910509F465C01CF58130910509F444C0BC
:10033000029709F0BBC0CE0101960E94040183E23E
:10034000FE013196AAE0B2E001900D928A95E1F7A4
:100350008DB79EB783970FB6F8949EBF0FBE8DBF23
:10036000ADB7BEB7119683E2EAE0F2E094C0853003
:10037000910509F475C00CF457C0069709F096C0B2
:10038000CE0101960E94040183E2FE013196AEE7A0
:10039000B1E001900D928A95E1F78DB79EB78397F2
:1003A0000FB6F8949EBF0FBE8DBFADB7BEB7119606
:1003B00083E2EEE7F1E06FC0CE0101960E940401F6
:1003C00083E2FE013196ADE2B2E001900D928A9592
:1003D000E1F78DB79EB783970FB6F8949EBF0FBE17
:1003E0008DBFADB7BEB7119683E2EDE2F2E053C028
:1003F000CE0101960E94040183E2FE013196A7EE30
:10040000B1E001900D928A95E1F78DB79EB7839781
:100410000FB6F8949EBF0FBE8DBFADB7BEB7119695
:1004200083E2E7EEF1E037C0CE0101960E940401BD
:1004300083E2FE013196A4ECB1E001900D928A9521
:10044000E1F78DB79EB783970FB6F8949EBF0FBEA6
:100450008DBFADB7BEB7119683E2E4ECF1E01BC0EF
:10046000CE0101960E94040183E2FE013196A1EAC9
:10047000B1E001900D928A95E1F78DB79EB7839711
:100480000FB6F8949EBF0FBE8DBFADB7BEB7119625
:1004900083E2E1EAF1E001900D928A95E1F70E9492
:1004A00031010FB6F894DEBF0FBECDBFC801A396D1
:1004B0000FB6F894DEBF0FBECDBFDF91CF911F9175
:1004C0000F910895FF920F931F93CF93DF9382E0D4
:1004D00090E00E94A90001E010E00E94C3008A336E
:1004E0009105D9F4C8E0D0E0FF24F3940E94C30042
:1004F000C09709F0F12C2197C9F7F11005C0C80188
:100500000E9482018C01E9CFC4E0D0E00E94C300C8
:10051000CA97E1F72197D1F7E0CF85349105E9F645
:10052000DF91CF911F910F91FF90089566E271E0E6
:1005300081E792E00E94CB040E94620268E371E0CE
:1005400081E792E00E94CB0460EA7FE080E090E0E7
:100550000C944C05FC01918D228D892F90E0805CDC
:100560009F4F821B91098F7399270895FC01918DEC
:10057000828D981731F0828DE80FF11D858D90E006
:1005800008958FEF9FEF0895FC01918D828D98174C
:1005900061F0828DDF01A80FB11D5D968C91928D67
:1005A0009F5F9F73928F90E008958FEF9FEF089564
:1005B000FC01538D448D252F30E0842F90E0821B69
:1005C000930B541710F0CF960895019708958FE379
:1005D00094E0892B49F080E090E0892B29F00E947B
:1005E0003F0481110C9400000895FC01848DDF010B
:1005F000A80FB11DA35ABF4F2C91848D90E0019696
:100600008F739927848FA689B7892C93A089B18984
:100610008C9180648C93938D848D981306C002888E
:10062000F389E02D80818F7D80830895EF92FF9282
:100630000F931F93CF93DF93EC0181E0888F9B8D05
:100640008C8D981305C0E889F989808185FD24C0C7
:10065000F62E0B8D10E00F5F1F4F0F731127E02E4A
:100660008C8DE8120CC00FB607FCFACFE889F98927
:10067000808185FFF5CFCE010E94F502F1CF8B8DF1
:10068000FE01E80FF11DE35AFF4FF0820B8FEA895C
:10069000FB898081806207C0EE89FF896083E889D9
:1006A000F98980818064808381E090E0DF91CF913F
:1006B0001F910F91FF90EF900895CF93DF93EC017E
:1006C000888D8823C9F0EA89FB89808185FD05C072
:1006D000A889B9898C9186FD0FC00FB607FCF5CFAC
:1006E000808185FFF2CFA889B9898C9185FFEDCFF4
:1006F000CE010E94F502E7CFDF91CF910895CF920E
:10070000DF92EF92FF921F93CF93DF93EC016A0188
:100710007B01122FE889F98982E080834115514ECF
:1007200061057105B1F060E079E08DE390E0A7012B
:1007300096010E94D908DA01C9010197A109B109FE
:10074000B695A795979587959C01211580E1380767
:10075000A8F0E889F989108260E874E88EE190E0F9
:10076000A70196010E94D908DA01C9010197A109E0
:10077000B109B695A795979587959C01EC85FD8560
:100780003083EE85FF852083188EEC89FD891083E8
:10079000EA89FB89808180618083EA89FB89808185
:1007A00088608083EA89FB89808180688083EA8908
:1007B000FB8980818F7D8083DF91CF911F91FF9096
:1007C000EF90DF90CF90089580E090E008951F9221
:1007D0000F920FB60F9211242F938F939F93EF9345
:1007E000FF93E0918102F09182028081E091870283
:1007F000F091880282FD12C0908180918A028F5F01
:100800008F7320918B02821751F0E0918A02F0E001
:10081000EF58FD4F958F80938A0201C08081FF9130
:10082000EF919F918F912F910F900FBE0F901F907E
:1008300018951F920F920FB60F9211242F933F938A
:100840004F935F936F937F938F939F93AF93BF93D8
:10085000EF93FF9381E792E00E94F502FF91EF9101
:10086000BF91AF919F918F917F916F915F914F91C8
:100870003F912F910F900FBE0F901F90189581E719
:1008800092E00E94AA0221E0892B09F420E0822F45
:100890000895E1E7F2E01382128288EE93E0A0E08F
:1008A000B0E084839583A683B7838FE491E091833E
:1008B000808385EC90E09587848784EC90E097872F
:1008C000868780EC90E0918B808B81EC90E0938B1D
:1008D000828B82EC90E0958B848B86EC90E0978BFA
:1008E000868B118E128E138E148E089508950E9499
:1008F00088050E9476040E94EF00C7EED2E00E94B5
:1009000096022097E1F30E94E702F9CFCF92DF929F
:10091000EF92FF920F931F93CF93DF936C017A01B5
:100920008B01C0E0D0E0CE15DF0581F0D8016D91DC
:100930008D01D601ED91FC910190F081E02DC60171
:100940000995892B11F02196EECF7E01C701DF9129
:10095000CF911F910F91FF90EF90DF90CF9008956E
:100960006115710579F0FB0101900020E9F73197DD
:10097000AF01461B570BDC01ED91FC910280F38126
:10098000E02D099480E090E008950C94B0046DE5AA
:1009900071E00C94B0040F931F93CF93DF93EC019D
:1009A0000E94B0048C01CE010E94C704800F911FE9
:1009B000DF91CF911F910F9108951F920F920FB663
:1009C0000F9211242F933F938F939F93AF93BF93D5
:1009D00080910F0390911003A0911103B091120325
:1009E00030910E0323E0230F2D3720F40196A11D33
:1009F000B11D05C026E8230F0296A11DB11D20934D
:100A00000E0380930F0390931003A0931103B093F0
:100A100012038091130390911403A0911503B091D8
:100A200016030196A11DB11D809313039093140327
:100A3000A0931503B0931603BF91AF919F918F912F
:100A40003F912F910F900FBE0F901F9018953FB7B9
:100A5000F8948091130390911403A0911503B09121
:100A6000160326B5A89B05C02F3F19F00196A11DBE
:100A7000B11D3FBFBA2FA92F982F8827820F911D34
:100A8000A11DB11DBC01CD0142E0660F771F881F7B
:100A9000991F4A95D1F708958F929F92AF92BF9276
:100AA000CF92DF92EF92FF926B017C010E942705AB
:100AB0004B015C01C114D104E104F10401F10E9475
:100AC00030080E942705DC01CB0188199909AA0981
:100AD000BB09883E9340A105B10560F321E0C21A2D
:100AE000D108E108F10888EE880E83E0981EA11C69
:100AF000B11CC114D104E104F10419F7DBCFFF905C
:100B0000EF90DF90CF90BF90AF909F908F9008951F
:100B1000789484B5826084BD84B5816084BD85B5D8
:100B2000826085BD85B5816085BDEEE6F0E080819F
:100B300081608083E1E8F0E01082808182608083C0
:100B4000808181608083E0E8F0E080818160808343
:100B5000E1EBF0E0808184608083E0EBF0E0808175
:100B600081608083EAE7F0E0808184608083808117
:100B700082608083808181608083808180688083BF
:100B80001092C10008952091590330915A032817FB
:100B90003907B9F49091170380911803981789F0D9
:100BA000E0911703F0E0E75EFC4F8081209117038E
:100BB00030E02F5F3F4F2F7333272093170390E0D0
:100BC00008958FEF9FEF08951F93CF93DF93DC017C
:100BD0005C968D919C915D97009739F421E030E00F
:100BE00013963C932E9312973BC05196ED91FC9136
:100BF000529750962C915097322F30951FB75E9692
:100C00004C915E97742F727041FD6095F89440810D
:100C1000772311F0422B01C043234083EC0121973D
:100C2000F1F748E0508160FF02C0522B01C053230E
:100C30005083EC012197F1F76695415099F7808137
:100C4000772319F08323808302C0282B20831FBFC2
:100C50005C968D919C915D970197F1F781E090E012
:100C6000DF91CF911F9108950895209159033091FC
:100C70005A032817390771F49091170380911803CC
:100C8000981741F0E0911703F0E0E75EFC4F808198
:100C900090E008958FEF9FEF0895209159033091D0
:100CA0005A032817390771F480911803209117030C
:100CB00090E0805C9F4F821B910960E470E00E948D
:100CC000C508089580E090E00895E0915903F091FF
:100CD0005A03E817F90769F4A389B4899C918589B7
:100CE000809589238C9310925A031092590381E0C6
:100CF000089580E00895CF93DF93EC018A8D9B8D5A
:100D0000892BF1F08091590390915A03C817D907A4
:100D1000B9F0009711F00E9465068E8D8E7F8E8F40
:100D20001092180310921703D0935A03C0935903DB
:100D3000EB89FC8990818D89892B808381E001C0BA
:100D400080E0DF91CF9108951F920F920FB60F921E
:100D500011242F933F934F935F936F937F938F93C0
:100D60009F93AF93BF93EF93FF93E0915903F0915B
:100D70005A03309709F451C0968DA685B7858585AD
:100D800091FF04C09C91892329F447C09C91892339
:100D900009F043C0A389B4899C91858980958923F2
:100DA0008C93868997890197F1F7608D718DA6855F
:100DB000B785558538E020E0CB010197F1F7822F08
:100DC00090E095958795282F4C91452309F0206850
:100DD000315091F7868D81FD20958091180390E028
:100DE00001968F73992730911703381749F0A09116
:100DF0001803B0E0A75EBC4F2C938093180303C088
:100E0000868D8160868F828D938D0197F1F7A389FE
:100E1000B4899C918589892B8C93FF91EF91BF9127
:100E2000AF919F918F917F916F915F914F913F9182
:100E30002F910F900FBE0F901F90189520E731E073
:100E4000FC01318320830C9465061F93CF93DF93BD
:100E5000EC01162F6E8D6695617081E06827812FF9
:100E60000E94960861E0812F0E945A08812F90E02D
:100E7000FC01E458FF4FE491E88BFC01E057FF4F81
:100E8000E491F0E0EE0FFF1FE255FF4F8591949142
:100E90009A8B898BDF91CF911F9108951F93CF93E8
:100EA000DF93EC01162F60E0812F0E945A088E8D8F
:100EB00081FD04C061E0812F0E9496081C87812F6C
:100EC00090E0FC01E458FF4FE491ED87FC01E0570E
:100ED000FF4FE491F0E0EE0FFF1FEC55FF4F8591BF
:100EE00094919F878E87DF91CF911F9108951F93D3
:100EF000CF93DF93EC01162F1B821A8288EE93E0CA
:100F0000A0E0B0E08C839D83AE83BF8380E791E057
:100F1000998388831F8A1E8A198E188E1B8E1A8EBB
:100F20001D8E1C8E8E8D8E7F20FB81F98E8F642FFF
:100F3000CE010E942507612FCE01DF91CF911F9135
:100F40000C944E07CF93DF93EC019A01AB011B8EFB
:100F50001A8E198E188E1F8A1E8A60E079E08DE342
:100F600090E00E94FB08F9012430310518F0C90116
:100F7000039702C081E090E09D8F8C8F6C85663175
:100F800008F069C0C901969587958431910510F0E4
:100F9000439702C081E090E09F8B8E8B369718F0CC
:100FA000C901059702C081E090E0998F888FC9013F
:100FB000880F991F280F391F369527953695279545
:100FC0002D30310518F02C50310902C021E030E0FD
:100FD0003B8F2A8F90916800683050F021E06E308E
:100FE00008F420E081E001C0880F2A95EAF701C0EB
:100FF00084E0892B809368009C85983038F09E307F
:1010000040F0963148F020E030E008C02DE630E0B6
:1010100005C02BE630E002C02CE630E03C8B2B8B89
:10102000983030F481E001C0880F9A95EAF70EC03D
:10103000292F30E09E3018F42850310902C02E507C
:10104000310981E001C0880F2A95EAF78D8B8C8DDC
:101050009D8D0197F1F7CE01DF91CF910C947B0626
:101060000895833081F028F4813099F08230A1F026
:1010700008958730A9F08830B9F08430D1F4809198
:1010800080008F7D03C0809180008F7780938000E7
:10109000089584B58F7702C084B58F7D84BD08958F
:1010A0008091B0008F7703C08091B0008F7D8093D6
:1010B000B0000895CF93DF9390E0FC01E458FF4F18
:1010C0002491FC01E057FF4F8491882361F190E067
:1010D000880F991FFC01E854FF4FC591D491FC0182
:1010E000E255FF4FA591B491611109C09FB7F894E3
:1010F0008881209582238883EC912E230BC0623057
:1011000061F49FB7F8948881322F309583238883C8
:10111000EC912E2B2C939FBF06C08FB7F894E881DB
:101120002E2B28838FBFDF91CF9108951F93CF93EC
:10113000DF93282F30E0F901E859FF4F8491F9013E
:10114000E458FF4FD491F901E057FF4FC491CC23ED
:10115000C1F0162F81110E943108EC2FF0E0EE0F44
:10116000FF1FE255FF4FA591B4919FB7F89411115D
:1011700004C08C91D095D82302C0EC91DE2BDC9377
:101180009FBFDF91CF911F91089597FB072E16F413
:10119000009407D077FD09D00E941A0907FC05D0FA
:1011A0003EF4909581959F4F0895709561957F4F7E
:1011B0000895A1E21A2EAA1BBB1BFD010DC0AA1F98
:1011C000BB1FEE1FFF1FA217B307E407F50720F0B0
:1011D000A21BB30BE40BF50B661F771F881F991F2B
:1011E0001A9469F760957095809590959B01AC0174
:1011F000BD01CF010895052E97FB1EF400940E94B7
:10120000120957FD07D00E94D90807FC03D04EF4FD
:101210000C94120950954095309521953F4F4F4FB2
:101220005F4F089590958095709561957F4F8F4F92
:101230009F4F0895AA1BBB1B51E107C0AA1FBB1FEC
:10124000A617B70710F0A61BB70B881F991F5A9552
:10125000A9F780959095BC01CD010895EE0FFF1F71
:101260000590F491E02D099410E0C3E6D0E004C0AD
:10127000FE010E942E092196C436D107C9F7F894C1
:02128000FFCF9E
:1012820041542B444953493F4154426561636F6E57
:101292003A00555549443A2000525353493A2000E6
:1012A2002D0064626D005374617274207363616E09
:1012B2006E696E672E2E2E0046696E6973686564CC
:1012C200207363616E6E696E672100000000001674
:1012D200038604D8025D03AA02C402B6020D0A0004
:1012E2006E616E00696E66006F7666000000000037
:0E12F200E4058604E40334064D06C305350604
:00000001FF
