:100000000C9464000C948C000C948C000C945E0690
:100010000C945E060C945E060C948C000C948C0080
:100020000C948C000C948C000C948C000C948C0020
:100030000C948C000C948C000C948C000C948C0010
:100040000C9497040C948C000C9447030C94790343
:100050000C948C000C948C000C948C000C948C00F0
:100060000C948C000C948C0000000008000201002D
:100070000003040700000000000000000102040863
:100080001020408001020408102001020408102002
:10009000040404040404040402020202020203032E
:1000A00003030303000000002300260029000000D2
:1000B0000000250028002B0000000000240027007D
:1000C0002A00C000A903C70011241FBECFEFD8E04B
:1000D000DEBFCDBF11E0A0E0B1E0E6EFF1E102C08C
:1000E00005900D92AE33B107D9F722E0AEE3B1E04F
:1000F00001C01D92A035B207E1F710E0C3E6D0E0E1
:1001000004C02197FE010E94E808C136D107C9F753
:100110000E94D7030C94EE080C940000882339F059
:10012000459A64EF71E080E090E00E94060598B186
:1001300080E2892788B9089520913E0130913F01DE
:1001400028173907E1F00097D1F0BC0190933F01E7
:1001500080933E014AE050E086E691E00E948504EB
:1001600010924101109240011092450110924401F9
:10017000109243011092420181E00C948E00089588
:1001800020E043E062E087E491E00C94310787E4EB
:1001900091E00C94D806CF93DF93C8E0D1E068815A
:1001A00087E491E00E949E05698187E491E0DF91F8
:1001B000CF910C949E05CF93DF938130910529F068
:1001C000029781F4C0E0D1E004C0DF91CF910C949C
:1001D000CB00699187E491E00E949E0581E0C830E0
:1001E000D807B9F7DF91CF91089587E491E00E9495
:1001F0000706892BD1F387E491E00C947D0587E411
:1002000091E00E940706892B81F40E94CB0064ECE8
:1002100079E080E090E00E940605F1CF0E94F500B1
:100220008B34910541F00E94FF000E94F5008F344D
:100230009105C9F7F3CF089526E040E855E260E064
:1002400070E086E691E00E94DF0240E855E260E05F
:1002500070E087E491E00E945C078FEF87B90C940F
:10026000FF00CF92DF92FF920F931F93CF93DF9304
:100270006C0100E010E0C0E0D0E08AE0F82E0C1540
:100280001D0574F40E94F500FC9E9001FD9E300D4A
:100290001124E901E097C80FD91F0F5F1F4FEFCF5F
:1002A000CE01DF91CF911F910F91FF90DF90CF9002
:1002B0000895EF92FF920F931F93CF93DF9300D097
:1002C00000D000D0CDB7DEB70E94F500CA97E1F7A5
:1002D00083E090E00E943101082FE92E0E94F50092
:1002E000CA97E1F784E090E00E943101182FF92EBF
:1002F0000E94F5008D97E1F783E090E00E943101C4
:10030000202F3E2DAC01612F7F2D80E090E02696BE
:100310000FB6F894DEBF0FBECDBFDF91CF911F9116
:100320000F91FF90EF900895CF93DF9300D000D00E
:1003300000D0CDB7DEB70E94590129833A834B83A1
:100340005C836D837E838D819E810397E9F48B812D
:100350009C818B359105C0F420914601211104C088
:1003600081E08093460107C0209142013091430112
:100370008217930748F486E0FE013196A0E4B1E0CD
:1003800001900D928A95E1F726960FB6F894DEBF9C
:100390000FBECDBFDF91CF9108951F93CF93DF9311
:1003A00082E090E00E94DB000E94F5008A33910514
:1003B000C1F4C8E0D0E011E00E94F500C09709F058
:1003C00010E02197C9F7111103C00E949401ECCFEE
:1003D000C4E0D0E00E94F500CA97E1F72197D1F779
:1003E000E3CF8534910501F71092460180914001D9
:1003F00090914101DF91CF911F9108950E94CD010D
:100400000C949C000E94FE0160ED77E080E090E09B
:100410000C940605FC01918D228D892F90E0805C63
:100420009F4F821B91098F7399270895FC01918D2D
:10043000828D981731F0828DE80FF11D858D90E047
:1004400008958FEF9FEF0895FC01918D828D98178D
:1004500061F0828DDF01A80FB11D5D968C91928DA8
:100460009F5F9F73928F90E008958FEF9FEF0895A5
:10047000FC01538D448D252F30E0842F90E0821BAA
:10048000930B541710F0CF960895019708958FE9B4
:1004900093E0892B49F080E090E0892B29F00E94BD
:1004A0009F0381110C9400000895FC01848DDF01ED
:1004B000A80FB11DA35ABF4F2C91848D90E00196D7
:1004C0008F739927848FA689B7892C93A089B189C6
:1004D0008C9180648C93938D848D981306C00288D0
:1004E000F389E02D80818F7D80830895EF92FF92C4
:1004F0000F931F93CF93DF93EC0181E0888F9B8D47
:100500008C8D981305C0E889F989808185FD24C008
:10051000F62E0B8D10E00F5F1F4F0F731127E02E8B
:100520008C8DE8120CC00FB607FCFACFE889F98968
:10053000808185FFF5CFCE010E945502F1CF8B8DD2
:10054000FE01E80FF11DE35AFF4FF0820B8FEA899D
:10055000FB898081806207C0EE89FF896083E8891A
:10056000F98980818064808381E090E0DF91CF9180
:100570001F910F91FF90EF900895CF93DF93EC01BF
:10058000888D8823C9F0EA89FB89808185FD05C0B3
:10059000A889B9898C9186FD0FC00FB607FCF5CFED
:1005A000808185FFF2CFA889B9898C9185FFEDCF35
:1005B000CE010E945502E7CFDF91CF910895CF92EF
:1005C000DF92EF92FF921F93CF93DF93EC016A01CA
:1005D0007B01122FE889F98982E080834115514E11
:1005E00061057105B1F060E079E08DE390E0A7016D
:1005F00096010E949308DA01C9010197A109B10986
:10060000B695A795979587959C01211580E13807A8
:10061000A8F0E889F989108260E874E88EE190E03A
:10062000A70196010E949308DA01C9010197A10967
:10063000B109B695A795979587959C01EC85FD85A1
:100640003083EE85FF852083188EEC89FD89108329
:10065000EA89FB89808180618083EA89FB898081C6
:1006600088608083EA89FB89808180688083EA8949
:10067000FB8980818F7D8083DF91CF911F91FF90D7
:10068000EF90DF90CF90089580E090E008951F9262
:100690000F920FB60F9211242F938F939F93EF9386
:1006A000FF93E0917601F09177018081E0917C01E8
:1006B000F0917D0182FD12C0908180917F018F5F5A
:1006C0008F7320918001821751F0E0917F01F0E05B
:1006D000EA59FE4F958F80937F0101C08081FF9181
:1006E000EF919F918F912F910F900FBE0F901F90C0
:1006F00018951F920F920FB60F9211242F933F93CC
:100700004F935F936F937F938F939F93AF93BF9319
:10071000EF93FF9386E691E00E945502FF91EF91DF
:10072000BF91AF919F918F917F916F915F914F9109
:100730003F912F910F900FBE0F901F90189586E656
:1007400091E00E940A0221E0892B09F420E0822F27
:100750000895E6E6F1E01382128288EE93E0A0E0CD
:10076000B0E084839583A683B7838EE091E0918384
:10077000808385EC90E09587848784EC90E0978770
:10078000868780EC90E0918B808B81EC90E0938B5E
:10079000828B82EC90E0958B848B86EC90E0978B3B
:1007A000868B118E128E138E148E089508950E94DA
:1007B00042050E94D6030E941C01C7E4D2E00E94B9
:1007C00002022097E1F30E944702F9CFCF92DF9215
:1007D000EF92FF920F931F93CF93DF936C017A01F7
:1007E0008B01C0E0D0E0CE15DF0581F0D8016D911E
:1007F0008D01D601ED91FC910190F081E02DC601B3
:100800000995892B11F02196EECF7E01C701DF916A
:10081000CF911F910F91FF90EF90DF90CF900895AF
:100820006115710579F0FB0101900020E9F731971E
:10083000AF01461B570BDC01ED91FC910280F38167
:10084000E02D099480E090E008956CE171E00C9453
:1008500010048F929F92AF92BF92EF92FF920F93EC
:100860001F93CF93DF93CDB7DEB7A1970FB6F89460
:10087000DEBF0FBECDBF7C01FA01CB0119A2223031
:1008800008F42AE08E010F5D1F4F822E912CA12CBF
:10089000B12CBF01A50194010E949308F901CA017E
:1008A000015011096A3010F4605D01C0695CD80123
:1008B0006C93232B242B252B61F7B801C7010E94D1
:1008C0001004A1960FB6F894DEBF0FBECDBFDF9126
:1008D000CF911F910F91FF90EF90BF90AF909F909D
:1008E0008F9008952115310541F4DC01ED91FC91C3
:1008F0000190F081E02D642F09940C9429049A0151
:10090000AB0160E070E00C9472040F931F93CF93DF
:10091000DF93EC010E947F048C01CE010E9425042C
:10092000800F911FDF91CF911F910F9108951F921A
:100930000F920FB60F9211242F933F938F939F9393
:10094000AF93BF938091040290910502A09106029B
:10095000B09107023091030223E0230F2D3720F4DA
:100960000196A11DB11D05C026E8230F0296A11D09
:10097000B11D209303028093040290930502A0937B
:100980000602B09307028091080290910902A0919B
:100990000A02B0910B020196A11DB11D80930802BD
:1009A00090930902A0930A02B0930B02BF91AF91FA
:1009B0009F918F913F912F910F900FBE0F901F909D
:1009C00018953FB7F8948091080290910902A09180
:1009D0000A02B0910B0226B5A89B05C02F3F19F063
:1009E0000196A11DB11D3FBFBA2FA92F982F8827AF
:1009F000820F911DA11DB11DBC01CD0142E0660F0A
:100A0000771F881F991F4A95D1F708958F929F925B
:100A1000AF92BF92CF92DF92EF92FF926B017C0177
:100A20000E94E1044B015C01C114D104E104F10412
:100A300001F10E94EA070E94E104DC01CB01881960
:100A40009909AA09BB09883E9340A105B10560F345
:100A500021E0C21AD108E108F10888EE880E83E08F
:100A6000981EA11CB11CC114D104E104F10419F7B2
:100A7000DBCFFF90EF90DF90CF90BF90AF909F9033
:100A80008F900895789484B5826084BD84B5816028
:100A900084BD85B5826085BD85B5816085BDEEE686
:100AA000F0E0808181608083E1E8F0E01082808165
:100AB00082608083808181608083E0E8F0E08081D3
:100AC00081608083E1EBF0E0808184608083E0EBF3
:100AD000F0E0808181608083EAE7F0E080818460DB
:100AE0008083808182608083808181608083808137
:100AF000806880831092C100089520914E02309149
:100B00004F0228173907B9F490910C0280910D0219
:100B1000981789F0E0910C02F0E0E25FFD4F8081D0
:100B200020910C0230E02F5F3F4F2F73332720932B
:100B30000C0290E008958FEF9FEF08951F93CF93DD
:100B4000DF93DC015C968D919C915D97009739F461
:100B500021E030E013963C932E9312973BC05196C0
:100B6000ED91FC91529750962C915097322F3095E1
:100B70001FB75E964C915E97742F727041FD609521
:100B8000F8944081772311F0422B01C04323408326
:100B9000EC012197F1F748E0508160FF02C0522B31
:100BA00001C053235083EC012197F1F76695415022
:100BB00099F78081772319F08323808302C0282B43
:100BC00020831FBF5C968D919C915D970197F1F7F3
:100BD00081E090E0DF91CF911F91089508952091D9
:100BE0004E0230914F022817390771F490910C0290
:100BF00080910D02981741F0E0910C02F0E0E25F65
:100C0000FD4F808190E008958FEF9FEF0895209130
:100C10004E0230914F022817390771F480910D026E
:100C200020910C0290E0805C9F4F821B910960E450
:100C300070E00E947F08089580E090E00895E091C0
:100C40004E02F0914F02E817F90769F4A389B489BD
:100C50009C918589809589238C9310924F021092E4
:100C60004E0281E0089580E00895CF93DF93EC0178
:100C70008A8D9B8D892BF1F080914E0290914F02CD
:100C8000C817D907B9F0009711F00E941F068E8D82
:100C90008E7F8E8F10920D0210920C02D0934F0215
:100CA000C0934E02EB89FC8990818D89892B8083CA
:100CB00081E001C080E0DF91CF9108951F920F92F3
:100CC0000FB60F9211242F933F934F935F936F931F
:100CD0007F938F939F93AF93BF93EF93FF93E09195
:100CE0004E02F0914F02309709F451C0968DA685BF
:100CF000B785858591FF04C09C91892329F447C05D
:100D00009C91892309F043C0A389B4899C9185896A
:100D1000809589238C93868997890197F1F7608D57
:100D2000718DA685B785558538E020E0CB01019708
:100D3000F1F7822F90E095958795282F4C914523C8
:100D400009F02068315091F7868D81FD20958091C2
:100D50000D0290E001968F73992730910C0238179D
:100D600049F0A0910D02B0E0A25FBD4F2C9380939B
:100D70000D0203C0868D8160868F828D938D0197D1
:100D8000F1F7A389B4899C918589892B8C93FF9174
:100D9000EF91BF91AF919F918F917F916F915F91F3
:100DA0004F913F912F910F900FBE0F901F9018956C
:100DB0002FE231E0FC01318320830C941F061F9346
:100DC000CF93DF93EC01162F6E8D6695617081E0F5
:100DD0006827812F0E94500861E0812F0E9414082B
:100DE000812F90E0FC01E458FF4FE491E88BFC0177
:100DF000E057FF4FE491F0E0EE0FFF1FE255FF4F89
:100E0000859194919A8B898BDF91CF911F91089551
:100E10001F93CF93DF93EC01162F60E0812F0E9488
:100E200014088E8D81FD04C061E0812F0E9450085E
:100E30001C87812F90E0FC01E458FF4FE491ED877F
:100E4000FC01E057FF4FE491F0E0EE0FFF1FEC557F
:100E5000FF4F859194919F878E87DF91CF911F914E
:100E600008951F93CF93DF93EC01162F1B821A82F4
:100E700088EE93E0A0E0B0E08C839D83AE83BF83D7
:100E80008FE291E0998388831F8A1E8A198E188EBB
:100E90001B8E1A8E1D8E1C8E8E8D8E7F20FB81F9EF
:100EA0008E8F642FCE010E94DF06612FCE01DF916D
:100EB000CF911F910C940807CF93DF93EC019A0117
:100EC000AB011B8E1A8E198E188E1F8A1E8A60E047
:100ED00079E08DE390E00E94B508F90124303105F6
:100EE00018F0C901039702C081E090E09D8F8C8FBC
:100EF0006C85663108F069C0C90196958795843183
:100F0000910510F0439702C081E090E09F8B8E8B9B
:100F1000369718F0C901059702C081E090E0998FDB
:100F2000888FC901880F991F280F391F369527957B
:100F3000369527952D30310518F02C50310902C017
:100F400021E030E03B8F2A8F90916800683050F0AC
:100F500021E06E3008F420E081E001C0880F2A957E
:100F6000EAF701C084E0892B809368009C85983063
:100F700038F09E3040F0963148F020E030E008C074
:100F80002DE630E005C02BE630E002C02CE630E074
:100F90003C8B2B8B983030F481E001C0880F9A9500
:100FA000EAF70EC0292F30E09E3018F4285031099E
:100FB00002C02E50310981E001C0880F2A95EAF75E
:100FC0008D8B8C8D9D8D0197F1F7CE01DF91CF91A7
:100FD0000C9435060895833081F028F4813099F01F
:100FE0008230A1F008958730A9F08830B9F08430BC
:100FF000D1F4809180008F7D03C0809180008F7735
:1010000080938000089584B58F7702C084B58F7D6A
:1010100084BD08958091B0008F7703C08091B000A7
:101020008F7D8093B0000895CF93DF9390E0FC0113
:10103000E458FF4F2491FC01E057FF4F849188232F
:1010400061F190E0880F991FFC01E854FF4FC591B2
:10105000D491FC01E255FF4FA591B491611109C0F3
:101060009FB7F8948881209582238883EC912E2362
:101070000BC0623061F49FB7F8948881322F3095AD
:1010800083238883EC912E2B2C939FBF06C08FB7B0
:10109000F894E8812E2B28838FBFDF91CF9108959C
:1010A0001F93CF93DF93282F30E0F901E859FF4FCA
:1010B0008491F901E458FF4FD491F901E057FF4FB3
:1010C000C491CC23C1F0162F81110E94EB07EC2FA5
:1010D000F0E0EE0FFF1FE255FF4FA591B4919FB7CF
:1010E000F894111104C08C91D095D82302C0EC91D2
:1010F000DE2BDC939FBFDF91CF911F91089597FB6B
:10110000072E16F4009407D077FD09D00E94D4086A
:1011100007FC05D03EF4909581959F4F08957095FA
:1011200061957F4F0895A1E21A2EAA1BBB1BFD01FA
:101130000DC0AA1FBB1FEE1FFF1FA217B307E407B6
:10114000F50720F0A21BB30BE40BF50B661F771F0E
:10115000881F991F1A9469F76095709580959095EE
:101160009B01AC01BD01CF010895052E97FB1EF434
:1011700000940E94CC0857FD07D00E94930807FCFA
:1011800003D04EF40C94CC085095409530952195A1
:101190003F4F4F4F5F4F08959095809570956195A3
:1011A0007F4F8F4F9F4F0895AA1BBB1B51E107C074
:1011B000AA1FBB1FA617B70710F0A61BB70B881FE7
:1011C000991F5A95A9F780959095BC01CD01089576
:1011D000EE0FFF1F0590F491E02D099410E0C3E697
:1011E000D0E004C0FE010E94E8082196C436D10771
:0611F000C9F7F894FFCFDF
:1011F60041542B444953493F4154000000007602B4
:10120600E6033802BD020A02240216020D0A006E27
:10121600616E00696E66006F766600000000009ED3
:0E12260005E6034403EE0507067D05EF05000F
:00000001FF
