:100000000C945D000C9486000C9486000C94860081
:100010000C9486000C9486000C9486000C94860048
:100020000C9486000C9486000C9486000C94860038
:100030000C9486000C9486000C9486000C94860028
:100040000C9436040C9486000C94B4020C94E602D2
:100050000C9486000C9486000C9486000C94860008
:100060000C9486000C948600000000080002010039
:100070000003040700000000000000000102040863
:100080001020408001020408102001020408102002
:10009000040404040404040402020202020203032E
:1000A0000303030300000000250028002B000000CC
:1000B0000000240027002A00160311241FBECFEFE2
:1000C000D8E0DEBFCDBF11E0A0E0B1E0EAE3FCE0A4
:1000D00003C0C89531960D92A431B107D1F721E044
:1000E000A4E1B1E001C01D92AA3BB207E1F710E024
:1000F000CDE5D0E004C02197FD2FEC2F55D5CC35B0
:10010000D107C9F70E9427040C941B060C94000029
:1001100061E089E00E94420560E089E00E947E057E
:1001200061E088E00E94420561E088E00E947E056F
:1001300061E087E00E94420561E087E00E947E0561
:1001400061E086E00E94420561E086E00E947E0553
:1001500061E084E00E94420561E084E00E947E0547
:1001600061E083E00E94420561E084E00E947E0538
:1001700060E085E00C94420560E089E00E947E0525
:1001800064E670E080E090E00E94A50461E089E010
:100190000E947E0564EF71E080E090E00C94A5047D
:1001A000FF920F931F93CF93DF93CDB7DEB72897BE
:1001B0000FB6F894DEBF0FBECDBF80E28D838E8375
:1001C0008F83188689838A838B831C820CEF1FEFB1
:1001D00080E2F82E84E191E00E947A011816190657
:1001E0000CF052C061E070E080E090E00E94A50455
:1001F00084E191E00E9494018B3309F10C3F9FEF61
:100200001907C9F098012D5F3F4F2330310540F4A5
:10021000E5E0F0E0EC0FFD1FE00FF11F83830CC061
:100220000330110548F4E1E0F0E0EC0FFD1FE00FB2
:10023000F11F808301C0F82E0F5F1F4FCBCFCE017F
:1002400005960E94DC058C01CE0101960E94DC051A
:1002500091E7F91212C0C8010E940506682F70E0EC
:100260004AE050E084E191E00E941F0460E071E008
:1002700084E191E00E94830307C090E7F91204C073
:10028000682FC8010E940D0628960FB6F894DEBFAD
:100290000FBECDBFDF91CF911F910F91FF900895B9
:1002A00084E191E00E947A011816190614F40C9466
:1002B000D000089526E040E052EC61E070E084E177
:1002C00091E00E944F0261E08DE00E9442050E9491
:1002D00088000E94BC006AE084E191E00E9408026C
:1002E0006AE070E080E090E00E94A50484E191E083
:1002F0000C94E601FC01918D228D892F90E0805CA9
:100300009F4F821B91098F7399270895FC01918D4E
:10031000828D981731F0828DE80FF11D858D90E068
:1003200008958FEF9FEF0895FC01918D828D9817AE
:1003300061F0828DDF01A80FB11D5D968C91928DC9
:100340009F5F9F73928F90E008958FEF9FEF0895C6
:10035000FC01538D448D252F30E0842F90E0821BCB
:10036000930B541710F0CF960895019708958CE0E1
:1003700093E0892B49F080E090E0892B29F00E94DE
:100380000C0381110C9400000895FC01848DDF01A1
:10039000A80FB11DA35ABF4F2C91848D90E00196F8
:1003A0008F739927848FA689B7892C93A089B189E7
:1003B0008C9180648C93938D848D981306C00288F1
:1003C000F389E02D80818F7D80830895CF93DF9323
:1003D000EC01888D8823C9F0EA89FB89808185FD3D
:1003E00005C0A889B9898C9186FD0FC00FB607FC9E
:1003F000F5CF808185FFF2CFA889B9898C9185FFDF
:10040000EDCFCE010E94C501E7CFDF91CF910895D6
:10041000EF92FF920F931F93CF93DF93EC0181E054
:10042000888F9B8D8C8D981305C0E889F989808110
:1004300085FD24C0F62E0B8D10E00F5F1F4F0F734C
:100440001127E02E8C8DE8120CC00FB607FCFACFF6
:10045000E889F989808185FFF5CFCE010E94C50129
:10046000F1CF8B8DFE01E80FF11DE35AFF4FF082B3
:100470000B8FEA89FB898081806207C0EE89FF8942
:100480006083E889F98980818064808381E090E0DD
:10049000DF91CF911F910F91FF90EF900895CF9230
:1004A000DF92EF92FF921F93CF93DF93EC016A01EB
:1004B0007B01122FE889F98982E080834115514E32
:1004C00061057105B1F060E079E08DE390E0A7018E
:1004D00096010E94AD05DA01C9010197A109B10990
:1004E000B695A79597958795AC01411580E158077A
:1004F000A8F0E889F989108260E874E88EE190E05C
:10050000A70196010E94AD05BA01A9014150510908
:10051000610971097695679557954795EC85FD8535
:100520005083EE85FF854083188EEC89FD8910830A
:10053000EA89FB89808180618083EA89FB898081E7
:1005400088608083EA89FB89808180688083EA896A
:10055000FB8980818F7D8083DF91CF911F91FF90F8
:10056000EF90DF90CF9008951F920F920FB60F92E9
:1005700011242F938F939F93EF93FF93E091240186
:10058000F09125018081E0912A01F0912B0182FDFB
:1005900012C0908180912D018F5F8F7320912E0169
:1005A000821751F0E0912D01F0E0EC5EFE4F958F47
:1005B00080932D0101C08081FF91EF919F918F91D8
:1005C0002F910F900FBE0F901F9018951F920F92B2
:1005D0000FB60F9211242F933F934F935F936F9316
:1005E0007F938F939F93AF93BF93EF93FF9384E198
:1005F00091E00E94C501FF91EF91BF91AF919F9152
:100600008F917F916F915F914F913F912F910F90BB
:100610000FBE0F901F90189584E191E00E947A011F
:1006200021E0892B09F420E0822F0895E4E1F1E034
:100630001382128288EE93E0A0E0B0E08483958379
:10064000A683B78386E091E09183808385EC90E078
:100650009587848784EC90E09787868780EC90E08C
:10066000918B808B81EC90E0938B828B82EC90E07D
:10067000958B848B86EC90E0978B868B118E128EF7
:10068000138E148E0895CF92DF92EF92FF920F9304
:100690001F93CF93DF936C017A018B01C0E0D0E010
:1006A000CE15DF0589F0D8016D918D01D601ED9150
:1006B000FC910190F081E02DC6010995892B11F480
:1006C0007E0102C02196ECCFC701DF91CF911F912F
:1006D0000F91FF90EF90DF90CF9008956115710515
:1006E00079F0FB0101900020E9F73197AF01461B3B
:1006F000570BDC01ED91FC910280F381E02D099410
:1007000080E090E008950C946E03DC01ED91FC9183
:100710000190F081E02D09944F925F926F927F9249
:10072000EF92FF920F931F93CF93DF93CDB7DEB776
:10073000A1970FB6F894DEBF0FBECDBF7C01FA01C2
:10074000CB0119A2223008F42AE08E010F5D1F4F61
:10075000422E512C612C712CBF01A30192010E94E9
:10076000AD05F901CA01015011096A3014F4605D48
:1007700001C0695CD8016C93232B242B252B61F7D6
:10078000B801C7010E946E03A1960FB6F894DEBFB0
:100790000FBECDBFDF91CF911F910F91FF90EF90D2
:1007A0007F906F905F904F900895CF92DF92EF927D
:1007B000FF920F931F93CF93DF93EC016A017B01AC
:1007C0002115310579F4E881F9810190F081E02D5E
:1007D000642FDF91CF911F910F91FF90EF90DF90E9
:1007E000CF9009942A303105E9F477FF1AC06DE201
:1007F0000E9485038C0144275527BA014C195D09D5
:100800006E097F092AE0CE010E948C03800F911FA0
:10081000DF91CF911F910F91FF90EF90DF90CF90DC
:1008200008952AE0B701A601CE01DF91CF911F9173
:100830000F91FF90EF90DF90CF900C948C039A0172
:10084000AB01770F660B770B0C94D50308950E94CC
:10085000DE040E9426040E945A01C7EBD1E00E94E8
:1008600050012097E1F30E94B701F9CF1F920F9238
:100870000FB60F9211242F933F938F939F93AF93B3
:10088000BF938091B2019091B301A091B401B09156
:10089000B5013091B10123E0230F2D3758F50196B2
:1008A000A11DB11D2093B1018093B2019093B301BA
:1008B000A093B401B093B5018091B6019091B701B6
:1008C000A091B801B091B9010196A11DB11D80930D
:1008D000B6019093B701A093B801B093B901BF914D
:1008E000AF919F918F913F912F910F900FBE0F90DD
:1008F0001F90189526E8230F0296A11DB11DD2CF97
:100900003FB7F8948091B6019091B701A091B801DA
:10091000B091B90126B5A89B05C02F3F19F00196EB
:10092000A11DB11D3FBFBA2FA92F982F8827BC0149
:10093000CD01620F711D811D911D42E0660F771F71
:10094000881F991F4A95D1F708958F929F92AF9271
:10095000BF92CF92DF92EF92FF926B017C010E94D7
:1009600080044B015C01C114D104E104F104E9F0FD
:100970000E94AC050E948004681979098A099B09C4
:10098000683E73408105910570F321E0C21AD108D9
:10099000E108F10888EE880E83E0981EA11CB11CC6
:1009A000C114D104E104F10429F7FF90EF90DF9026
:1009B000CF90BF90AF909F908F900895789484B51A
:1009C000826084BD84B5816084BD85B5826085BD4B
:1009D00085B5816085BDEEE6F0E080818160808331
:1009E000E1E8F0E010828081826080838081816014
:1009F0008083E0E8F0E0808181608083E1EBF0E0DB
:100A0000808184608083E0EBF0E08081816080837E
:100A1000EAE7F0E080818460808380818260808367
:100A20008081816080838081806880831092C10092
:100A30000895833081F028F4813099F08230A9F054
:100A400008958730A9F08830C9F08430B1F48091DE
:100A500080008F7D03C0809180008F77809380001D
:100A6000089584B58F7784BD089584B58F7DFBCFBD
:100A70008091B0008F778093B00008958091B0008E
:100A80008F7DF9CFCF93DF9390E0FC01E458FF4FC7
:100A9000249180579F4FFC0184918823C9F090E0F6
:100AA000880F991FFC01E255FF4FA591B491FC01FD
:100AB000EC55FF4FC591D49161110DC09FB7F894CB
:100AC0008C91209582238C938881282328839FBF33
:100AD000DF91CF910895623051F49FB7F8943C9123
:100AE000822F809583238C93E8812E2BEFCF8FB7B5
:100AF000F894EC912E2B2C938FBFEACF1F93CF93BA
:100B0000DF93162F282F30E0F901E859FF4F849129
:100B1000F901E458FF4FD491F901E057FF4FC49118
:100B2000CC23A1F081110E941905EC2FF0E0EE0F0B
:100B3000FF1FEC55FF4FA591B4918FB7F894EC913E
:100B4000111108C0D095DE23DC938FBFDF91CF91C8
:100B50001F910895DE2BF8CF0895A1E21A2EAA1B4B
:100B6000BB1BEA2FFB2F0DC0AA1FBB1FEE1FFF1FD1
:100B7000A217B307E407F50720F0A21BB30BE40BA1
:100B8000F50B661F771F881F991F1A9469F76095E8
:100B9000709580959095262F372F482F592F6A2FC3
:100BA0007B2F8E2F9F2F0895EE0FFF1FC8950F925A
:100BB0003196C8950F920895E82FF92F8827992725
:100BC000E89421912032E9F3293010F02E30C8F357
:100BD0002B3239F02D3231F4689403C00BD0820FE0
:100BE000911D219120532A30C8F31EF490958195D0
:100BF0009F4F0895682F792F880F991F880F991F8D
:100C0000860F971F880F991F0895F999FECF92BDFF
:100C100081BDF89A992780B50895262FF999FECFBE
:100C20001FBA92BD81BD20BD0FB6F894FA9AF99A09
:0A0C30000FBE01960895F894FFCF5F
:100C3A000A000000000008024303A801E6017A0145
:040C4A00940186018A
:00000001FF
