S0140000646F6A6F5F70726F6A6563742E737265630E
S11300000C9464000C948C000C948C000C944A03A3
S11300100C944A030C944A030C948C000C948C00AA
S11300200C948C000C948C000C948C000C948C001C
S11300300C948C000C948C000C948C000C948C000C
S11300400C9438060C948C000C94D6040C9408057B
S11300500C948C000C948C000C948C000C948C00EC
S11300600C948C000C948C00000000080002010029
S1130070000304070000000000000000010204085F
S113008010204080010204081020010204081020FE
S1130090040404040404040402020202020203032A
S11300A003030303000000002300260029000000CE
S11300B00000250028002B00000000002400270079
S11300C02A00C4003805D20011241FBECFEFD8E0A7
S11300D0DEBFCDBF11E0A0E0B1E0E4E4F1E102C095
S11300E005900D92AE37B107D9F722E0AEE7B1E043
S11300F001C01D92AF3AB207E1F710E0C3E6D0E0C9
S113010004C02197FE010E948F08C136D107C9F7A8
S11301100E9466050C9495080C94000040E855E292
S113012060E070E08DE991E00E94480440E855E207
S113013060E070E08EE791E00E9448048FEF87B999
S113014084B18B6384B9549A80E090E00E94DA0011
S11301500E94230160E084E00E9422070C946F0156
S11301600C945C026AE071E08DE991E00E94B805AC
S11301700E94B0002FEF81E19AE721508040904027
S1130180E1F700C00000089520E041E060E08DE95F
S113019091E00E941D0420E043E062E08EE791E0DC
S11301A00C941D048EE791E00E94C4038DE991E054
S11301B00C94C40398B118B898B1892B88B90895E0
S11301C0882351F0459A2FEF84E39CE0215080402E
S11301D09040E1F700C0000098B180E2892788B917
S11301E00895CF93DF93EC014AE050E0BC018DE920
S11301F091E00E9426068091BC019091BD01C81730
S1130200D907F1F02097E1F0D093BD01C093BC0170
S11302104AE050E0BE018DE991E00E94260610926A
S1130220BF011092BE011092C3011092C20110923C
S1130230C1011092C00181E0DF91CF910C94E000E4
S1130240DF91CF91089561E089E00E94E60660E0C5
S113025089E00E94220761E08CE00E94E60661E0EA
S11302608CE00E94220761E08DE00E94E60661E0D6
S11302708DE00C942207CF93DF93C8E0D1E068812E
S11302808EE791E00E948A0269818EE791E0DF9116
S1130290CF910C948A02CF93DF938130910529F09A
S11302A0029781F4C0E0D1E004C0DF91CF910C94B7
S11302B03B0169918EE791E00E948A0281E0C83097
S11302C0D807B9F7DF91CF9108958EE791E00E94A6
S11302D0F302892BD1F38EE791E00C9469028EE747
S11302E091E00E94F302892B99F40E943B012FEFC5
S11302F088E09DE3215080409040E1F700C0000079
S1130300EECF0E9465018B34910541F00E946F018C
S11303100E9465018F349105C9F7F3CF0895CF92F8
S1130320DF92FF920F931F93CF93DF936C0100E052
S113033010E0C0E0D0E08AE0F82E0C151D0574F43E
S11303400E946501FC9E9001FD9E300D1124E9017F
S1130350E097C80FD91F0F5F1F4FEFCFCE01DF917A
S1130360CF911F910F91FF90DF90CF900895EF925E
S1130370FF920F931F93CF93DF9300D000D000D050
S1130380CDB7DEB70E946501CA97E1F783E090E03C
S11303900E948F01082FE92E0E946501CA97E1F798
S11303A084E090E00E948F01182FF92E0E946501CD
S11303B08D97E1F783E090E00E948F01202F3E2D7E
S11303C0AC01612F7F2D80E090E026960FB6F89463
S11303D0DEBF0FBECDBFDF91CF911F910F91FF9074
S11303E0EF900895CF93DF9300D000D000D0CDB725
S11303F0DEB70E94B70129833A834B835C836D8304
S11304007E838D819E810397E9F48B819C818B355A
S11304109105C0F42091C401211104C081E08093AE
S1130420C40107C02091C0013091C1018217930714
S113043048F486E0FE013196AEEBB1E001900D92F6
S11304408A95E1F726960FB6F894DEBF0FBECDBFAE
S1130450DF91CF9108951F93CF93DF9382E090E0D3
S11304600E944B010E9465018A339105C1F4C8E0E2
S1130470D0E011E00E946501C09709F010E02197D7
S1130480C9F7111103C00E94F201ECCFC4E0D0E01F
S11304900E946501CA97E1F72197D1F7E3CF85342C
S11304A0910501F71092C4018091BE019091BF01A2
S11304B0DF91CF911F9108950E942B020E94F100B9
S11304C065E371E08DE991E00C94B80580E090E07B
S11304D00895209107023091080228173907B9F4CA
S11304E09091C5018091C601981789F0E091C501EA
S11304F0F0E0E953FE4F80812091C50130E02F5F89
S11305003F4F2F7333272093C50190E008958FEF59
S11305109FEF08951F93CF93DF93DC015C968D9139
S11305209C915D97009739F421E030E013963C9359
S11305302E9312973BC05196ED91FC915297509691
S11305402C915097322F30951FB75E964C915E9741
S1130550742F727041FD6095F8944081772311F0F7
S1130560422B01C043234083EC012197F1F748E07B
S1130570508160FF02C0522B01C053235083EC0111
S11305802197F1F76695415099F78081772319F007
S11305908323808302C0282B20831FBF5C968D9108
S11305A09C915D970197F1F781E090E0DF91CF9105
S11305B01F91089508952091070230910802281789
S11305C0390771F49091C5018091C601981741F0E3
S11305D0E091C501F0E0E953FE4F808190E0089579
S11305E08FEF9FEF0895209107023091080228179A
S11305F0390771F48091C6012091C50190E0805CB7
S11306009F4F821B910960E470E00E9426080895C0
S113061080E090E00895E0910702F0910802E81765
S1130620F90769F4A389B4899C9185898095892304
S11306308C93109208021092070281E0089580E0E2
S11306400895CF93DF93EC018A8D9B8D892BF1F074
S11306508091070290910802C817D907B9F0009752
S113066011F00E940B038E8D8E7F8E8F1092C60127
S11306701092C501D0930802C0930702EB89FC894C
S113068090818D89892B808381E001C080E0DF9196
S1130690CF9108951F920F920FB60F9211242F93AA
S11306A03F934F935F936F937F938F939F93AF93F6
S11306B0BF93EF93FF93E0910702F0910802309704
S11306C009F451C0968DA685B785858591FF04C030
S11306D09C91892329F447C09C91892309F043C044
S11306E0A389B4899C918589809589238C93868973
S11306F097890197F1F7608D718DA685B78555852A
S113070038E020E0CB010197F1F7822F90E0959536
S11307108795282F4C91452309F02068315091F793
S1130720868D81FD20958091C60190E001968F739E
S113073099273091C501381749F0A091C601B0E05E
S1130740A953BE4F2C938093C60103C0868D81604C
S1130750868F828D938D0197F1F7A389B4899C913B
S11307608589892B8C93FF91EF91BF91AF919F91D4
S11307708F917F916F915F914F913F912F910F9046
S11307800FBE0F901F9018952EE431E0FC013183C9
S113079020830C940B031F93CF93DF93EC01162F4C
S11307A06E8D6695617081E06827812F0E94220713
S11307B061E0812F0E94E606812F90E0FC01E4585D
S11307C0FF4FE491E88BFC01E057FF4FE491F0E028
S11307D0EE0FFF1FE255FF4F859194919A8B898B01
S11307E0DF91CF911F9108951F93CF93DF93EC0175
S11307F0162F60E0812F0E94E6068E8D81FD04C0D5
S113080061E0812F0E9422071C87812F90E0FC0168
S1130810E458FF4FE491ED87FC01E057FF4FE4916A
S1130820F0E0EE0FFF1FEC55FF4F859194919F87E9
S11308308E87DF91CF911F9108951F93CF93DF93FC
S1130840EC01162F1B821A8288EE93E0A0E0B0E040
S11308508C839D83AE83BF838EE491E099838883E8
S11308601F8A1E8A198E188E1B8E1A8E1D8E1C8E40
S11308708E8D8E7F20FB81F98E8F642FCE010E9496
S1130880CB03612FCE01DF91CF911F910C94F40320
S1130890CF93DF93EC019A01AB011B8E1A8E198E54
S11308A0188E1F8A1E8A60E874E88EE190E00E9428
S11308B05C08F9012430310518F0C901039702C01E
S11308C081E090E09D8F8C8F6C85663108F069C063
S11308D0C901969587958431910510F0439702C01C
S11308E081E090E09F8B8E8B369718F0C9010597B5
S11308F002C081E090E0998F888FC901880F991F09
S1130900280F391F36952795369527952D303105B3
S113091018F02C50310902C021E030E03B8F2A8FBF
S113092090916800683050F021E06E3008F420E0C7
S113093081E001C0880F2A95EAF701C084E0892B81
S1130940809368009C85983038F09E3040F0963152
S113095048F020E030E008C02DE630E005C02BE68A
S113096030E002C02CE630E03C8B2B8B983030F426
S113097081E001C0880F9A95EAF70EC0292F30E074
S11309809E3018F42850310902C02E50310981E0FC
S113099001C0880F2A95EAF78D8B8C8D9D8D019768
S11309A0F1F7CE01DF91CF910C9421031F920F92A6
S11309B00FB60F9211242F938F939F93EF93FF936E
S11309C0E0911902F0911A028081E0911F02F091E6
S11309D0200282FD12C09081809122028F5F8F736A
S11309E020912302821751F0E0912202F0E0E75FA8
S11309F0FD4F958F8093220201C08081FF91EF917A
S1130A009F918F912F910F900FBE0F901F9018956B
S1130A101F920F920FB60F9211242F933F934F936F
S1130A205F936F937F938F939F93AF93BF93EF9352
S1130A30FF9389E092E00E949C07FF91EF91BF91A0
S1130A40AF919F918F917F916F915F914F913F9162
S1130A502F910F900FBE0F901F90189589E092E090
S1130A600E94510721E0892B09F420E0822F089588
S1130A70E9E0F2E01382128288EE93E0A0E0B0E0B5
S1130A8084839583A683B7838FE691E091838083E3
S1130A9085EC90E09587848784EC90E0978786873F
S1130AA080EC90E0918B808B81EC90E0938B828B37
S1130AB082EC90E0958B848B86EC90E0978B868B10
S1130AC0118E128E138E148E089508950E9482063C
S1130AD00E9465050E948E00CEE8D7E00E94B20015
S1130AE02097E1F30E948E07F9CFCF92DF92EF9225
S1130AF0FF920F931F93CF93DF936C017A018B01C5
S1130B00C0E0D0E0CE15DF0581F0D8016D918D01F4
S1130B10D601ED91FC910190F081E02DC60109957B
S1130B20892B11F02196EECF7E01C701DF91CF9181
S1130B301F910F91FF90EF90DF90CF900895611572
S1130B40710579F0FB0101900020E9F73197AF01BD
S1130B50461B570BDC01ED91FC910280F381E02DE3
S1130B60099480E090E008956CE571E00C949F0591
S1130B700F931F93CF93DF93EC010E949F058C0189
S1130B80CE010E94B405800F911FDF91CF911F9178
S1130B900F9108958F929F92AF92BF92EF92FF921E
S1130BA00F931F93CF93DF93CDB7DEB7A1970FB603
S1130BB0F894DEBF0FBECDBF7C01FA01CB0119A2B0
S1130BC0223008F42AE08E010F5D1F4F822E912CF3
S1130BD0A12CB12CBF01A50194010E943A08F9018E
S1130BE0CA01015011096A3010F4605D01C0695CEA
S1130BF0D8016C93232B242B252B61F7B801C70153
S1130C000E949F05A1960FB6F894DEBF0FBECDBF1C
S1130C10DF91CF911F910F91FF90EF90BF90AF9014
S1130C209F908F9008952115310541F4DC01ED91D9
S1130C30FC910190F081E02D642F09940C94CA0575
S1130C409A01AB0160E070E00C9413060F931F93BC
S1130C50CF93DF93EC010E9420068C01CE010E9409
S1130C60B405800F911FDF91CF911F910F910895CB
S1130C701F920F920FB60F9211242F933F938F93CD
S1130C809F93AF93BF938091A7029091A802A091E4
S1130C90A902B091AA023091A60223E0230F2D37B6
S1130CA020F40196A11DB11D05C026E8230F02966C
S1130CB0A11DB11D2093A6028093A7029093A802C0
S1130CC0A093A902B093AA028091AB029091AC02C6
S1130CD0A091AD02B091AE020196A11DB11D809309
S1130CE0AB029093AC02A093AD02B093AE02BF915D
S1130CF0AF919F918F913F912F910F900FBE0F90C5
S1130D001F901895789484B5826084BD84B5816001
S1130D1084BD85B5826085BD85B5816085BDEEE6FF
S1130D20F0E0808181608083E1E8F0E010828081DE
S1130D3082608083808181608083E0E8F0E080814C
S1130D4081608083E1EBF0E0808184608083E0EB6C
S1130D50F0E0808181608083EAE7F0E08081846054
S1130D6080838081826080838081816080838081B0
S1130D70806880831092C1000895833081F028F444
S1130D80813099F08230A1F008958730A9F088303D
S1130D90B9F08430D1F4809180008F7D03C08091BC
S1130DA080008F7780938000089584B58F7702C088
S1130DB084B58F7D84BD08958091B0008F7703C082
S1130DC08091B0008F7D8093B0000895CF93DF931E
S1130DD090E0FC01E458FF4F2491FC01E057FF4FE1
S1130DE08491882361F190E0880F991FFC01E854F5
S1130DF0FF4FC591D491FC01E255FF4FA591B491E9
S1130E00611109C09FB7F894888120958223888353
S1130E10EC912E230BC0623061F49FB7F894888163
S1130E20322F309583238883EC912E2B2C939FBFF4
S1130E3006C08FB7F894E8812E2B28838FBFDF91EB
S1130E40CF9108951F93CF93DF93282F30E0F901BA
S1130E50E859FF4F8491F901E458FF4FD491F90107
S1130E60E057FF4FC491CC23C1F0162F81110E948B
S1130E70BD06EC2FF0E0EE0FFF1FE255FF4FA591EA
S1130E80B4919FB7F894111104C08C91D095D823D4
S1130E9002C0EC91DE2BDC939FBFDF91CF911F91B9
S1130EA00895FC01918D228D892F90E0805C9F4FE5
S1130EB0821B91098F7399270895FC01918D828D6E
S1130EC0981731F0828DE80FF11D858D90E008951B
S1130ED08FEF9FEF0895FC01918D828D981761F03B
S1130EE0828DDF01A80FB11D5D968C91928D9F5F5D
S1130EF09F73928F90E008958FEF9FEF0895FC0108
S1130F00538D448D252F30E0842F90E0821B930B6A
S1130F10541710F0CF960895019708958EE295E046
S1130F20892B49F080E090E0892B29F00E942E055E
S1130F3081110C9400000895FC01848DDF01A80F39
S1130F40B11DA35ABF4F2C91848D90E001968F73ED
S1130F509927848FA689B7892C93A089B1898C910C
S1130F6080648C93938D848D981306C00288F389D2
S1130F70E02D80818F7D80830895EF92FF920F93FF
S1130F801F93CF93DF93EC0181E0888F9B8D8C8D31
S1130F90981305C0E889F989808185FD24C0F62E5F
S1130FA00B8D10E00F5F1F4F0F731127E02E8C8DF8
S1130FB0E8120CC00FB607FCFACFE889F9898081E2
S1130FC085FFF5CFCE010E949C07F1CF8B8DFE01EA
S1130FD0E80FF11DE35AFF4FF0820B8FEA89FB897A
S1130FE08081806207C0EE89FF896083E889F9897E
S1130FF080818064808381E090E0DF91CF911F91B4
S11310000F91FF90EF900895CF93DF93EC01888DBB
S11310108823C9F0EA89FB89808185FD05C0A889F8
S1131020B9898C9186FD0FC00FB607FCF5CF80817E
S113103085FFF2CFA889B9898C9185FFEDCFCE01C8
S11310400E949C07E7CFDF91CF91089597FB072E6D
S113105016F4009407D077FD09D00E947B0807FCA2
S113106005D03EF4909581959F4F089570956195B4
S11310707F4F0895A1E21A2EAA1BBB1BFD010DC0D0
S1131080AA1FBB1FEE1FFF1FA217B307E407F50734
S113109020F0A21BB30BE40BF50B661F771F881F10
S11310A0991F1A9469F760957095809590959B01A6
S11310B0AC01BD01CF010895052E97FB1EF40094E9
S11310C00E94730857FD07D00E943A0807FC03D01A
S11310D04EF40C94730850954095309521953F4FEC
S11310E04F4F5F4F089590958095709561957F4F10
S11310F08F4F9F4F0895AA1BBB1B51E107C0AA1F26
S1131100BB1FA617B70710F0A61BB70B881F991FA4
S11311105A95A9F780959095BC01CD010895EE0FDD
S1131120FF1F0590F491E02D099410E0C3E6D0E090
S113113004C0FE010E948F082196C436D107C9F766
S1071140F894FFCF4D
S113114441542B444953493F41547061737365645A
S113115400426561636F6E3A00555549443A200074
S11311644D414A4F523A2000525353493A20002DDC
S11311740064626D007061737365732074657374C5
S1131184436F6D706172696E6700000000008A022B
S113119475056602DA02F3026902DB020D0A006EC7
S11311A4616E00696E66006F76660000000000BD23
S11111B40775057F07040851076B075D0700E8
S9030000FC
