:100000000C9464000C948C000C948C000C942603CB
:100010000C9426030C9426030C948C000C948C00F6
:100020000C948C000C948C000C948C000C948C0020
:100030000C948C000C948C000C948C000C948C0010
:100040000C947B050C948C000C94B2040C94E40486
:100050000C948C000C948C000C948C000C948C00F0
:100060000C948C000C948C0000000008000201002D
:100070000003040700000000000000000102040863
:100080001020408001020408102001020408102002
:10009000040404040404040402020202020203032E
:1000A00003030303000000002300260029000000D2
:1000B0000000250028002B0000000000240027007D
:1000C0002A00B4001405C20011241FBECFEFD8E0EF
:1000D000DEBFCDBF11E0A0E0B1E0EAECFFE002C07E
:1000E00005900D92AE32B107D9F722E0AEE2B1E051
:1000F00001C01D92AF35B207E1F710E0C3E6D0E0D2
:1001000004C02197FE010E94D207C136D107C9F76A
:100110000E9442050C94D8070C94000040E855E278
:1001200060E070E08DE491E00E94240440E855E234
:1001300060E070E08EE291E00E9424048FEF87B9C6
:1001400084B18B6384B9549A80E090E00E94CA0025
:100150000E94050160E084E00E9465060C94510154
:100160000C943E020C94B00020E041E060E08DE48D
:1001700091E00E94F90320E043E062E08EE291E02A
:100180000C94F9038EE291E00E94A0038DE491E0CB
:100190000C94A00398B118B898B1892B88B9089528
:1001A000882351F0459A2FEF84E39CE02150804052
:1001B0009040E1F700C0000098B180E2892788B93B
:1001C000089520916C0130916D0128173907D1F005
:1001D0000097C1F090936D0180936C0110926F01B4
:1001E00010926E01109273011092720110927101BF
:1001F0001092700181E00E94D00080916C0190917A
:100200006D01089580E090E0089561E089E00E942A
:10021000290660E089E00E94650661E08CE00E94AA
:10022000290661E08CE00E94650661E08DE00E9495
:10023000290661E08DE00C946506CF93DF93C8E05A
:10024000D1E068818EE291E00E94660269818EE2CF
:1002500091E0DF91CF910C946602CF93DF938130D0
:10026000910529F0029781F4C0E0D1E004C0DF914C
:10027000CF910C941D0169918EE291E00E9466027B
:1002800081E0C830D807B9F7DF91CF9108958EE2A9
:1002900091E00E94CF02892BD1F38EE291E00C9481
:1002A00045028EE291E00E94CF02892B99F40E94D0
:1002B0001D012FEF88E09DE3215080409040E1F741
:1002C00000C00000EECF0E9447018B34910541F041
:1002D0000E9451010E9447018F349105C9F7F3CF65
:1002E0000895CF92DF92FF920F931F93CF93DF93E6
:1002F0006C0100E010E0C0E0D0E08AE0F82E0C15C0
:100300001D0574F40E944701FC9E9001FD9E300D76
:100310001124E901E097C80FD91F0F5F1F4FEFCFDE
:10032000CE01DF91CF911F910F91FF90DF90CF9081
:100330000895EF92FF920F931F93CF93DF9300D016
:1003400000D000D0CDB7DEB70E944701CA97E1F7D1
:1003500083E090E00E947101082FE92E0E9447017E
:10036000CA97E1F784E090E00E947101182FF92EFE
:100370000E9447018D97E1F783E090E00E947101B0
:10038000202F3E2DAC01612F7F2D80E090E026963E
:100390000FB6F894DEBF0FBECDBFDF91CF911F9196
:1003A0000F91FF90EF900895CF93DF9300D000D08E
:1003B00000D0CDB7DEB70E94990129833A834B83E1
:1003C0005C836D837E838D819E810397E9F48B81AD
:1003D0009C818B359105C0F420917401211104C0DA
:1003E00081E08093740107C0209170013091710108
:1003F0008217930748F486E0FE013196AEE6B1E03D
:1004000001900D928A95E1F726960FB6F894DEBF1B
:100410000FBECDBFDF91CF9108951F93CF93DF9390
:1004200082E090E00E942D010E9447018A339105ED
:10043000C1F4C8E0D0E011E00E944701C09709F084
:1004400010E02197C9F7111103C00E94D401ECCF2D
:10045000C4E0D0E00E944701CA97E1F72197D1F7A5
:10046000E3CF8534910501F71092740180916E01FC
:1004700090916F01DF91CF911F9108950E940D021D
:100480000C94E10080E090E008952091B701309154
:10049000B80128173907B9F4909175018091760158
:1004A000981789F0E0917501F0E0E958FE4F8081DE
:1004B0002091750130E02F5F3F4F2F73332720933A
:1004C000750190E008958FEF9FEF08951F93CF93EC
:1004D000DF93DC015C968D919C915D97009739F4D8
:1004E00021E030E013963C932E9312973BC0519637
:1004F000ED91FC91529750962C915097322F309558
:100500001FB75E964C915E97742F727041FD609597
:10051000F8944081772311F0422B01C0432340839C
:10052000EC012197F1F748E0508160FF02C0522BA7
:1005300001C053235083EC012197F1F76695415098
:1005400099F78081772319F08323808302C0282BB9
:1005500020831FBF5C968D919C915D970197F1F769
:1005600081E090E0DF91CF911F910895089520914F
:10057000B7013091B8012817390771F490917501CE
:1005800080917601981741F0E0917501F0E0E9580B
:10059000FE4F808190E008958FEF9FEF08952091A6
:1005A000B7013091B8012817390771F480917601AD
:1005B0002091750190E0805C9F4F821B910960E45F
:1005C00070E00E946907089580E090E00895E0914E
:1005D000B701F091B801E817F90769F4A389B48964
:1005E0009C918589809589238C931092B8011092F3
:1005F000B70181E0089580E00895CF93DF93EC0187
:100600008A8D9B8D892BF1F08091B7019091B80173
:10061000C817D907B9F0009711F00E94E7028E8D34
:100620008E7F8E8F1092760110927501D093B80153
:10063000C093B701EB89FC8990818D89892B8083D8
:1006400081E001C080E0DF91CF9108951F920F9269
:100650000FB60F9211242F933F934F935F936F9395
:100660007F938F939F93AF93BF93EF93FF93E0910B
:10067000B701F091B801309709F451C0968DA68565
:10068000B785858591FF04C09C91892329F447C0D3
:100690009C91892309F043C0A389B4899C918589E1
:1006A000809589238C93868997890197F1F7608DCE
:1006B000718DA685B785558538E020E0CB0101977F
:1006C000F1F7822F90E095958795282F4C9145233F
:1006D00009F02068315091F7868D81FD2095809139
:1006E000760190E001968F73992730917501381744
:1006F00049F0A0917601B0E0A958BE4F2C938093A9
:10070000760103C0868D8160868F828D938D0197DF
:10071000F1F7A389B4899C918589892B8C93FF91EA
:10072000EF91BF91AF919F918F917F916F915F9169
:100730004F913F912F910F900FBE0F901F901895E2
:100740002EE031E0FC01318320830C94E7021F93FB
:10075000CF93DF93EC01162F6E8D6695617081E06B
:100760006827812F0E94650661E0812F0E9429067B
:10077000812F90E0FC01E458FF4FE491E88BFC01ED
:10078000E057FF4FE491F0E0EE0FFF1FE255FF4FFF
:10079000859194919A8B898BDF91CF911F910895C8
:1007A0001F93CF93DF93EC01162F60E0812F0E94FF
:1007B00029068E8D81FD04C061E0812F0E946506AF
:1007C0001C87812F90E0FC01E458FF4FE491ED87F6
:1007D000FC01E057FF4FE491F0E0EE0FFF1FEC55F6
:1007E000FF4F859194919F878E87DF91CF911F91C5
:1007F00008951F93CF93DF93EC01162F1B821A826B
:1008000088EE93E0A0E0B0E08C839D83AE83BF834D
:100810008EE091E0998388831F8A1E8A198E188E34
:100820001B8E1A8E1D8E1C8E8E8D8E7F20FB81F965
:100830008E8F642FCE010E94A703612FCE01DF911E
:10084000CF911F910C94D003CF93DF93EC019A01C9
:10085000AB011B8E1A8E198E188E1F8A1E8A60E8B5
:1008600074E88EE190E00E949F07F9012430310581
:1008700018F0C901039702C081E090E09D8F8C8F32
:100880006C85663108F069C0C901969587958431F9
:10089000910510F0439702C081E090E09F8B8E8B12
:1008A000369718F0C901059702C081E090E0998F52
:1008B000888FC901880F991F280F391F36952795F2
:1008C000369527952D30310518F02C50310902C08E
:1008D00021E030E03B8F2A8F90916800683050F023
:1008E00021E06E3008F420E081E001C0880F2A95F5
:1008F000EAF701C084E0892B809368009C859830DA
:1009000038F09E3040F0963148F020E030E008C0EA
:100910002DE630E005C02BE630E002C02CE630E0EA
:100920003C8B2B8B983030F481E001C0880F9A9576
:10093000EAF70EC0292F30E09E3018F42850310914
:1009400002C02E50310981E001C0880F2A95EAF7D4
:100950008D8B8C8D9D8D0197F1F7CE01DF91CF911D
:100960000C94FD021F920F920FB60F9211242F9339
:100970008F939F93EF93FF93E091C901F091CA0188
:100980008081E091CF01F091D00182FD12C0908171
:100990008091D2018F5F8F732091D301821751F024
:1009A000E091D201F0E0E754FE4F958F8093D201A1
:1009B00001C08081FF91EF919F918F912F910F90B6
:1009C0000FBE0F901F9018951F920F920FB60F92A7
:1009D00011242F933F934F935F936F937F938F9344
:1009E0009F93AF93BF93EF93FF9389EB91E00E94A6
:1009F000DF06FF91EF91BF91AF919F918F917F9112
:100A00006F915F914F913F912F910F900FBE0F907B
:100A10001F90189589EB91E00E94940621E0892BA4
:100A200009F420E0822F0895E9EBF1E013821282AD
:100A300088EE93E0A0E0B0E084839583A683B7833B
:100A400080E291E09183808385EC90E095878487B4
:100A500084EC90E09787868780EC90E0918B808B88
:100A600081EC90E0938B828B82EC90E0958B848B71
:100A700086EC90E0978B868B118E128E138E148EDF
:100A8000089508950E94C5050E9441050E948E00A8
:100A9000C1EDD6E00E94B2002097E1F30E94D1069A
:100AA000F9CFCF92DF92EF92FF920F931F93CF93E4
:100AB000DF936C017A018B01C0E0D0E0CE15DF0539
:100AC00081F0D8016D918D01D601ED91FC910190DD
:100AD000F081E02DC6010995892B11F02196EECF0A
:100AE0007E01C701DF91CF911F910F91FF90EF9091
:100AF000DF90CF9008951F920F920FB60F9211249E
:100B00002F933F938F939F93AF93BF9380915702FF
:100B100090915802A0915902B0915A023091560218
:100B200023E0230F2D3720F40196A11DB11D05C030
:100B300026E8230F0296A11DB11D20935602809333
:100B4000570290935802A0935902B0935A02809191
:100B50005B0290915C02A0915D02B0915E020196F1
:100B6000A11DB11D80935B0290935C02A0935D0276
:100B7000B0935E02BF91AF919F918F913F912F9162
:100B80000F900FBE0F901F901895789484B58260D7
:100B900084BD84B5816084BD85B5826085BD85B521
:100BA000816085BDEEE6F0E0808181608083E1E8D0
:100BB000F0E0108280818260808380818160808308
:100BC000E0E8F0E0808181608083E1EBF0E080810B
:100BD00084608083E0EBF0E0808181608083EAE7DD
:100BE000F0E0808184608083808182608083808166
:100BF000816080838081806880831092C100089525
:100C0000833081F028F4813099F08230A1F008958A
:100C10008730A9F08830B9F08430D1F48091800019
:100C20008F7D03C0809180008F778093800008952E
:100C300084B58F7702C084B58F7D84BD089580917F
:100C4000B0008F7703C08091B0008F7D8093B0009B
:100C50000895CF93DF9390E0FC01E458FF4F249177
:100C6000FC01E057FF4F8491882361F190E0880FE9
:100C7000991FFC01E854FF4FC591D491FC01E25546
:100C8000FF4FA591B491611109C09FB7F894888175
:100C9000209582238883EC912E230BC0623061F46F
:100CA0009FB7F8948881322F309583238883EC9105
:100CB0002E2B2C939FBF06C08FB7F894E8812E2B64
:100CC00028838FBFDF91CF9108951F93CF93DF9338
:100CD000282F30E0F901E859FF4F8491F901E458D9
:100CE000FF4FD491F901E057FF4FC491CC23C1F0DD
:100CF000162F81110E940006EC2FF0E0EE0FFF1F6F
:100D0000E255FF4FA591B4919FB7F894111104C01B
:100D10008C91D095D82302C0EC91DE2BDC939FBF41
:100D2000DF91CF911F910895FC01918D228D892F24
:100D300090E0805C9F4F821B91098F7399270895E3
:100D4000FC01918D828D981731F0828DE80FF11D95
:100D5000858D90E008958FEF9FEF0895FC01918DB0
:100D6000828D981761F0828DDF01A80FB11D5D960D
:100D70008C91928D9F5F9F73928F90E008958FEF7B
:100D80009FEF0895FC01538D448D252F30E0842F73
:100D900090E0821B930B541710F0CF9608950197A3
:100DA00008958AE095E0892B49F080E090E0892B56
:100DB00029F00E940A0581110C9400000895FC019D
:100DC000848DDF01A80FB11DA35ABF4F2C91848DD4
:100DD00090E001968F739927848FA689B7892C9309
:100DE000A089B1898C9180648C93938D848D9813A4
:100DF00006C00288F389E02D80818F7D808308956D
:100E0000EF92FF920F931F93CF93DF93EC0181E05A
:100E1000888F9B8D8C8D981305C0E889F989808116
:100E200085FD24C0F62E0B8D10E00F5F1F4F0F7352
:100E30001127E02E8C8DE8120CC00FB607FCFACFFC
:100E4000E889F989808185FFF5CFCE010E94DF0610
:100E5000F1CF8B8DFE01E80FF11DE35AFF4FF082B9
:100E60000B8FEA89FB898081806207C0EE89FF8948
:100E70006083E889F98980818064808381E090E0E3
:100E8000DF91CF911F910F91FF90EF900895CF9335
:100E9000DF93EC01888D8823C9F0EA89FB89808182
:100EA00085FD05C0A889B9898C9186FD0FC00FB654
:100EB00007FCF5CF808185FFF2CFA889B9898C9195
:100EC00085FFEDCFCE010E94DF06E7CFDF91CF9106
:100ED000089597FB072E16F4009407D077FD09D0EC
:100EE0000E94BE0707FC05D03EF4909581959F4F68
:100EF0000895709561957F4F0895A1E21A2EAA1B5F
:100F0000BB1BFD010DC0AA1FBB1FEE1FFF1FA217B9
:100F1000B307E407F50720F0A21BB30BE40BF50BB6
:100F2000661F771F881F991F1A9469F7609570953F
:100F3000809590959B01AC01BD01CF010895052ED0
:100F400097FB1EF400940E94B60757FD07D00E943D
:100F50007D0707FC03D04EF40C94B60750954095DE
:100F6000309521953F4F4F4F5F4F08959095809555
:100F7000709561957F4F8F4F9F4F0895AA1BBB1BA4
:100F800051E107C0AA1FBB1FA617B70710F0A61B89
:100F9000B70B881F991F5A95A9F780959095BC01AA
:100FA000CD010895EE0FFF1F0590F491E02D0994F7
:100FB00010E0C3E6D0E004C0FE010E94D2072196F3
:0A0FC000C436D107C9F7F894FFCF3B
:100FCA0041542B444953493F4154000000006602F2
:100FDA0051054202B602CF024502B70200000000E4
:0E0FEA0000075105C20647079406AE06A00692
:00000001FF
