:100000000C9464000C948C000C948C000C943003C1
:100010000C9430030C9430030C948C000C948C00E2
:100020000C948C000C948C000C948C000C948C0020
:100030000C948C000C948C000C948C000C948C0010
:100040000C940C060C948C000C94BC040C94EE04E0
:100050000C948C000C948C000C948C000C948C00F0
:100060000C948C000C948C0000000008000201002D
:100070000003040700000000000000000102040863
:100080001020408001020408102001020408102002
:10009000040404040404040402020202020203032E
:1000A00003030303000000002300260029000000D2
:1000B0000000250028002B0000000000240027007D
:1000C0002A00BE001E05CC0011241FBECFEFD8E0D1
:1000D000DEBFCDBF11E0A0E0B1E0ECEEF0E102C088
:1000E00005900D92AE33B107D9F722E0AEE3B1E04F
:1000F00001C01D92AF36B207E1F710E0C3E6D0E0D1
:1001000004C02197FE010E946308C136D107C9F7D8
:100110000E944C050C9469080C94000040E855E2DC
:1001200060E070E08DE591E00E942E0440E855E229
:1001300060E070E08EE391E00E942E048FEF87B9BB
:1001400084B18B6384B9549A80E090E00E94D4001B
:100150000E940F0160E084E00E94F6060C945B01AF
:100160000E944802009739F04AE050E0BC018DE55A
:1001700091E00C94FA0508950C94B00020E041E061
:1001800060E08DE591E00E94030420E043E062E03E
:100190008EE391E00C9403048EE391E00E94AA03A5
:1001A0008DE591E00C94AA0398B118B898B1892B09
:1001B00088B90895882351F0459A2FEF84E39CE095
:1001C000215080409040E1F700C0000098B180E2EB
:1001D000892788B9089520917C0130917D012817E5
:1001E0003907D1F00097C1F090937D0180937C0195
:1001F00010927F0110927E01109283011092820171
:10020000109281011092800181E00E94DA008091B9
:100210007C0190917D01089580E090E0089561E077
:1002200089E00E94BA0660E089E00E94F60661E07B
:100230008CE00E94BA0661E08CE00E94F60661E064
:100240008DE00E94BA0661E08DE00C94F606CF9333
:10025000DF93C8E0D1E068818EE391E00E947002F4
:1002600069818EE391E0DF91CF910C947002CF937E
:10027000DF938130910529F0029781F4C0E0D1E04D
:1002800004C0DF91CF910C94270169918EE391E036
:100290000E94700281E0C830D807B9F7DF91CF9192
:1002A00008958EE391E00E94D902892BD1F38EE369
:1002B00091E00C944F028EE391E00E94D902892BC9
:1002C00099F40E9427012FEF88E09DE321508040A0
:1002D0009040E1F700C00000EECF0E9451018B3446
:1002E000910541F00E945B010E9451018F349105FC
:1002F000C9F7F3CF0895CF92DF92FF920F931F9328
:10030000CF93DF936C0100E010E0C0E0D0E08AE022
:10031000F82E0C151D0574F40E945101FC9E9001ED
:10032000FD9E300D1124E901E097C80FD91F0F5F22
:100330001F4FEFCFCE01DF91CF911F910F91FF9013
:10034000DF90CF900895EF92FF920F931F93CF937A
:10035000DF9300D000D000D0CDB7DEB70E945101AE
:10036000CA97E1F783E090E00E947B01082FE92E15
:100370000E945101CA97E1F784E090E00E947B015E
:10038000182FF92E0E9451018D97E1F783E090E03C
:100390000E947B01202F3E2DAC01612F7F2D80E03C
:1003A00090E026960FB6F894DEBF0FBECDBFDF916A
:1003B000CF911F910F91FF90EF900895CF93DF930E
:1003C00000D000D000D0CDB7DEB70E94A3012983B2
:1003D0003A834B835C836D837E838D819E810397FB
:1003E000E9F48B819C818B359105C0F420918401C7
:1003F000211104C081E08093840107C02091800115
:10040000309181018217930748F486E0FE0131960E
:10041000AEE7B1E001900D928A95E1F726960FB60E
:10042000F894DEBF0FBECDBFDF91CF9108951F932B
:10043000CF93DF9382E090E00E9437010E94510148
:100440008A339105C1F4C8E0D0E011E00E94510167
:10045000C09709F010E02197C9F7111103C00E945D
:10046000DE01ECCFC4E0D0E00E945101CA97E1F771
:100470002197D1F7E3CF8534910501F710928401DC
:1004800080917E0190917F01DF91CF911F9108951E
:100490000E9417020C94EB0080E090E008952091F8
:1004A000C7013091C80128173907B9F49091850127
:1004B00080918601981789F0E0918501F0E0E95775
:1004C000FE4F80812091850130E02F5F3F4F2F73D9
:1004D00033272093850190E008958FEF9FEF0895D3
:1004E0001F93CF93DF93DC015C968D919C915D9778
:1004F000009739F421E030E013963C932E93129745
:100500003BC05196ED91FC91529750962C9150978B
:10051000322F30951FB75E964C915E97742F727094
:1005200041FD6095F8944081772311F0422B01C082
:1005300043234083EC012197F1F748E0508160FFAD
:1005400002C0522B01C053235083EC012197F1F7D5
:100550006695415099F78081772319F08323808332
:1005600002C0282B20831FBF5C968D919C915D97C4
:100570000197F1F781E090E0DF91CF911F9108950D
:1005800008952091C7013091C8012817390771F4E7
:100590009091850180918601981741F0E091850145
:1005A000F0E0E957FE4F808190E008958FEF9FEFD4
:1005B00008952091C7013091C8012817390771F4B7
:1005C000809186012091850190E0805C9F4F821B85
:1005D000910960E470E00E94FA07089580E090E0DD
:1005E0000895E091C701F091C801E817F90769F48F
:1005F000A389B4899C918589809589238C931092D5
:10060000C8011092C70181E0089580E00895CF935A
:10061000DF93EC018A8D9B8D892BF1F08091C701CE
:100620009091C801C817D907B9F0009711F00E943E
:10063000F1028E8D8E7F8E8F109286011092850131
:10064000D093C801C093C701EB89FC8990818D8943
:10065000892B808381E001C080E0DF91CF910895F4
:100660001F920F920FB60F9211242F933F934F9327
:100670005F936F937F938F939F93AF93BF93EF930A
:10068000FF93E091C701F091C801309709F451C080
:10069000968DA685B785858591FF04C09C91892399
:1006A00029F447C09C91892309F043C0A389B489E8
:1006B0009C918589809589238C9386899789019758
:1006C000F1F7608D718DA685B785558538E020E0FE
:1006D000CB010197F1F7822F90E095958795282F10
:1006E0004C91452309F02068315091F7868D81FDAA
:1006F00020958091860190E001968F739927309123
:100700008501381749F0A0918601B0E0A957BE4F86
:100710002C938093860103C0868D8160868F828DA5
:10072000938D0197F1F7A389B4899C918589892BD1
:100730008C93FF91EF91BF91AF919F918F917F919A
:100740006F915F914F913F912F910F900FBE0F903E
:100750001F9018952EE031E0FC01318320830C942A
:10076000F1021F93CF93DF93EC01162F6E8D6695E8
:10077000617081E06827812F0E94F60661E0812F79
:100780000E94BA06812F90E0FC01E458FF4FE491EB
:10079000E88BFC01E057FF4FE491F0E0EE0FFF1F04
:1007A000E255FF4F859194919A8B898BDF91CF9180
:1007B0001F9108951F93CF93DF93EC01162F60E0F4
:1007C000812F0E94BA068E8D81FD04C061E0812FC9
:1007D0000E94F6061C87812F90E0FC01E458FF4F31
:1007E000E491ED87FC01E057FF4FE491F0E0EE0F5C
:1007F000FF1FEC55FF4F859194919F878E87DF9166
:10080000CF911F9108951F93CF93DF93EC01162F83
:100810001B821A8288EE93E0A0E0B0E08C839D8377
:10082000AE83BF838EE091E0998388831F8A1E8AFE
:10083000198E188E1B8E1A8E1D8E1C8E8E8D8E7F9D
:1008400020FB81F98E8F642FCE010E94B103612FAE
:10085000CE01DF91CF911F910C94DA03CF93DF93F8
:10086000EC019A01AB011B8E1A8E198E188E1F8A0D
:100870001E8A60E874E88EE190E00E943008F90179
:100880002430310518F0C901039702C081E090E0DF
:100890009D8F8C8F6C85663108F069C0C901969573
:1008A00087958431910510F0439702C081E090E074
:1008B0009F8B8E8B369718F0C901059702C081E097
:1008C00090E0998F888FC901880F991F280F391FD1
:1008D00036952795369527952D30310518F02C50F3
:1008E000310902C021E030E03B8F2A8F90916800EF
:1008F000683050F021E06E3008F420E081E001C063
:10090000880F2A95EAF701C084E0892B809368005C
:100910009C85983038F09E3040F0963148F020E0C9
:1009200030E008C02DE630E005C02BE630E002C024
:100930002CE630E03C8B2B8B983030F481E001C00A
:10094000880F9A95EAF70EC0292F30E09E3018F4F0
:100950002850310902C02E50310981E001C0880FB2
:100960002A95EAF78D8B8C8D9D8D0197F1F7CE013D
:10097000DF91CF910C9407031F920F920FB60F9245
:1009800011242F938F939F93EF93FF93E091D901BD
:10099000F091DA018081E091DF01F091E00182FDC8
:1009A00012C090818091E2018F5F8F732091E301EB
:1009B000821751F0E091E201F0E0E753FE4F958F8E
:1009C0008093E20101C08081FF91EF919F918F910F
:1009D0002F910F900FBE0F901F9018951F920F929E
:1009E0000FB60F9211242F933F934F935F936F9302
:1009F0007F938F939F93AF93BF93EF93FF9389EC74
:100A000091E00E947007FF91EF91BF91AF919F918C
:100A10008F917F916F915F914F913F912F910F90A7
:100A20000FBE0F901F90189589EC91E00E9425074A
:100A300021E0892B09F420E0822F0895E9ECF1E010
:100A40001382128288EE93E0A0E0B0E08483958365
:100A5000A683B7838FE291E09183808385EC90E059
:100A60009587848784EC90E09787868780EC90E078
:100A7000918B808B81EC90E0938B828B82EC90E069
:100A8000958B848B86EC90E0978B868B118E128EE3
:100A9000138E148E089508950E9456060E944B05E9
:100AA0000E948E00C2E6D7E00E94BC002097E1F3CE
:100AB0000E946207F9CFCF92DF92EF92FF920F93DD
:100AC0001F93CF93DF936C017A018B01C0E0D0E0DC
:100AD000CE15DF0581F0D8016D918D01D601ED9124
:100AE000FC910190F081E02DC6010995892B11F050
:100AF0002196EECF7E01C701DF91CF911F910F911B
:100B0000FF90EF90DF90CF9008956115710579F017
:100B1000FB0101900020E9F73197AF01461B570B0D
:100B2000DC01ED91FC910280F381E02D099480E0DD
:100B300090E008956CE171E00C9485058F929F928E
:100B4000AF92BF92EF92FF920F931F93CF93DF93D9
:100B5000CDB7DEB7A1970FB6F894DEBF0FBECDBFFD
:100B60007C01FA01CB0119A2223008F42AE08E019F
:100B70000F5D1F4F822E912CA12CB12CBF01A5011E
:100B800094010E940E08F901CA01015011096A304E
:100B900010F4605D01C0695CD8016C93232B242B99
:100BA000252B61F7B801C7010E948505A1960FB6F4
:100BB000F894DEBF0FBECDBFDF91CF911F910F9193
:100BC000FF90EF90BF90AF909F908F900895211568
:100BD000310541F4DC01ED91FC910190F081E02DB3
:100BE000642F09940C949E059A01AB0160E070E0BB
:100BF0000C94E7050F931F93CF93DF93EC010E94B2
:100C0000F4058C01CE010E949A05800F911FDF919F
:100C1000CF911F910F9108951F920F920FB60F92CF
:100C200011242F933F938F939F93AF93BF93809102
:100C3000670290916802A0916902B0916A023091B6
:100C4000660223E0230F2D3720F40196A11DB11D6C
:100C500005C026E8230F0296A11DB11D2093660250
:100C60008093670290936802A0936902B0936A022E
:100C700080916B0290916C02A0916D02B0916E0216
:100C80000196A11DB11D80936B0290936C02A093FD
:100C90006D02B0936E02BF91AF919F918F913F9182
:100CA0002F910F900FBE0F901F901895789484B5D8
:100CB000826084BD84B5816084BD85B5826085BD58
:100CC00085B5816085BDEEE6F0E08081816080833E
:100CD000E1E8F0E010828081826080838081816021
:100CE0008083E0E8F0E0808181608083E1EBF0E0E8
:100CF000808184608083E0EBF0E08081816080838C
:100D0000EAE7F0E080818460808380818260808374
:100D10008081816080838081806880831092C1009F
:100D20000895833081F028F4813099F08230A1F069
:100D300008958730A9F08830B9F08430D1F48091DB
:100D400080008F7D03C0809180008F77809380002A
:100D5000089584B58F7702C084B58F7D84BD0895D2
:100D60008091B0008F7703C08091B0008F7D809319
:100D7000B0000895CF93DF9390E0FC01E458FF4F5B
:100D80002491FC01E057FF4F8491882361F190E0AA
:100D9000880F991FFC01E854FF4FC591D491FC01C5
:100DA000E255FF4FA591B491611109C09FB7F89426
:100DB0008881209582238883EC912E230BC062309A
:100DC00061F49FB7F8948881322F3095832388830C
:100DD000EC912E2B2C939FBF06C08FB7F894E8811F
:100DE0002E2B28838FBFDF91CF9108951F93CF9330
:100DF000DF93282F30E0F901E859FF4F8491F90182
:100E0000E458FF4FD491F901E057FF4FC491CC2330
:100E1000C1F0162F81110E949106EC2FF0E0EE0F29
:100E2000FF1FE255FF4FA591B4919FB7F8941111A0
:100E300004C08C91D095D82302C0EC91DE2BDC93BA
:100E40009FBFDF91CF911F910895FC01918D228D5D
:100E5000892F90E0805C9F4F821B91098F739927A7
:100E60000895FC01918D828D981731F0828DE80FE5
:100E7000F11D858D90E008958FEF9FEF0895FC019F
:100E8000918D828D981761F0828DDF01A80FB11DC1
:100E90005D968C91928D9F5F9F73928F90E00895E5
:100EA0008FEF9FEF0895FC01538D448D252F30E087
:100EB000842F90E0821B930B541710F0CF96089567
:100EC0000197089584E195E0892B49F080E090E056
:100ED000892B29F00E94140581110C9400000895BB
:100EE000FC01848DDF01A80FB11DA35ABF4F2C91C7
:100EF000848D90E001968F739927848FA689B78996
:100F00002C93A089B1898C9180648C93938D848D6E
:100F1000981306C00288F389E02D80818F7D80833D
:100F20000895EF92FF920F931F93CF93DF93EC01FD
:100F300081E0888F9B8D8C8D981305C0E889F98995
:100F4000808185FD24C0F62E0B8D10E00F5F1F4FB2
:100F50000F731127E02E8C8DE8120CC00FB607FC22
:100F6000FACFE889F989808185FFF5CFCE010E940B
:100F70007007F1CF8B8DFE01E80FF11DE35AFF4F93
:100F8000F0820B8FEA89FB898081806207C0EE893D
:100F9000FF896083E889F98980818064808381E0AA
:100FA00090E0DF91CF911F910F91FF90EF90089506
:100FB000CF93DF93EC01888D8823C9F0EA89FB8900
:100FC000808185FD05C0A889B9898C9186FD0FC0F7
:100FD0000FB607FCF5CF808185FFF2CFA889B989CC
:100FE0008C9185FFEDCFCE010E947007E7CFDF9196
:100FF000CF91089597FB072E16F4009407D077FD44
:1010000009D00E944F0807FC05D03EF490958195C9
:101010009F4F0895709561957F4F0895A1E21A2E14
:10102000AA1BBB1BFD010DC0AA1FBB1FEE1FFF1F8C
:10103000A217B307E407F50720F0A21BB30BE40BDC
:10104000F50B661F771F881F991F1A9469F7609523
:101050007095809590959B01AC01BD01CF010895DD
:10106000052E97FB1EF400940E94470857FD07D0F9
:101070000E940E0807FC03D04EF40C9447085095CC
:101080004095309521953F4F4F4F5F4F0895909574
:101090008095709561957F4F8F4F9F4F0895AA1B44
:1010A000BB1B51E107C0AA1FBB1FA617B70710F053
:1010B000A61BB70B881F991F5A95A9F78095909585
:1010C000BC01CD010895EE0FFF1F0590F491E02DB6
:1010D000099410E0C3E6D0E004C0FE010E9463085A
:0C10E0002196C436D107C9F7F894FFCF61
:1010EC0041542B444953493F4154000000007002C5
:1010FC005B054C02C002D9024F02C1020D0A006E00
:10110C00616E00696E66006F7666000000000091EB
:0E111C00075B055307D80725073F073107007B
:00000001FF
