S0140000646F6A6F5F70726F6A6563742E737265630E
S11300000C9464000C948C000C948C000C94BA0135
S11300100C94BA010C94BA010C948C000C948C00CE
S11300200C948C000C948C000C948C000C948C001C
S11300300C948C000C948C000C948C000C948C000C
S11300400C9481030C948C000C94B8020C94EA0276
S11300500C948C000C948C000C948C000C948C00EC
S11300600C948C000C948C00000000080002010029
S1130070000304070000000000000000010204085F
S113008010204080010204081020010204081020FE
S1130090040404040404040402020202020203032A
S11300A003030303000000002300260029000000CE
S11300B00000250028002B00000000002400270079
S11300C02A00B3001A03C10011241FBECFEFD8E0E9
S11300D0DEBFCDBF11E0A0E0B1E0E8E1FCE002C08A
S11300E005900D92A632B107D9F722E0A6E2B1E05D
S11300F001C01D92AE34B207E1F710E0C3E6D0E0D0
S113010004C02197FE010E94F905C136D107C9F741
S11301100E9448030C94FF050C94000061E081E008
S11301200E94900460E081E00E94CC0461E084E0DD
S11301300E94900461E084E00E94CC0461E085E0C8
S11301400E94900461E085E00C94CC048FEF87B9A1
S11301508AB984B98AE188B915B80E948E0061E031
S113016084E00C94900420E041E060E085E491E0B8
S11301700E948D0220E043E062E086E291E00C946C
S11301808D0286E291E00E94340285E491E00C94B1
S11301903402CF93DF93C0E0D1E0688186E291E03E
S11301A00E942301698186E291E0DF91CF910C9452
S11301B0230186E291E00E948C01892BD1F386E22F
S11301C091E00C9402010E94C90086E291E00E9431
S11301D08C01892B71F00E94D900682F85E491E08D
S11301E00E9423010E94D900682F85E491E00E94B7
S11301F0230164EF71E080E090E00C94F00380E070
S113020090E008952091A6013091A701281739079D
S1130210B9F49091640180916501981789F0E09197
S11302206401F0E0EA59FE4F80812091640130E0DE
S11302302F5F3F4F2F7333272093640190E008957D
S11302408FEF9FEF08951F93CF93DF93DC015C96AC
S11302508D919C915D97009739F421E030E01396DD
S11302603C932E9312973BC05196ED91FC9152977B
S113027050962C915097322F30951FB75E964C9123
S11302805E97742F727041FD6095F89440817723D6
S113029011F0422B01C043234083EC012197F1F775
S11302A048E0508160FF02C0522B01C053235083A9
S11302B0EC012197F1F76695415099F780817723F6
S11302C019F08323808302C0282B20831FBF5C96F0
S11302D08D919C915D970197F1F781E090E0DF911A
S11302E0CF911F91089508952091A6013091A701FF
S11302F02817390771F4909164018091650198176A
S113030041F0E0916401F0E0EA59FE4F808190E011
S113031008958FEF9FEF08952091A6013091A701D2
S11303202817390771F4809165012091640190E0E8
S1130330805C9F4F821B910960E470E00E94D105AC
S1130340089580E090E00895E091A601F091A7015E
S1130350E817F90769F4A389B4899C918589809584
S113036089238C931092A7011092A60181E008952D
S113037080E008951F920F920FB60F9211242F93CD
S11303803F934F935F936F937F938F939F93AF9319
S1130390BF93EF93FF93E091A601F091A7013097EB
S11303A009F451C0968DA685B785858591FF04C053
S11303B09C91892329F447C09C91892309F043C067
S11303C0A389B4899C918589809589238C93868996
S11303D097890197F1F7608D718DA685B78555854D
S11303E038E020E0CB010197F1F7822F90E095955A
S11303F08795282F4C91452309F02068315091F7B7
S1130400868D81FD20958091650190E001968F7322
S1130410992730916401381749F0A0916501B0E043
S1130420AA59BE4F2C938093650103C0868D8160C9
S1130430868F828D938D0197F1F7A389B4899C915E
S11304408589892B8C93FF91EF91BF91AF919F91F7
S11304508F917F916F915F914F913F912F910F9069
S11304600FBE0F901F90189526E031E0FC013183F8
S113047020830C94A4011F93CF93DF93EC01162FD8
S11304806E8D6695617081E06827812F0E94CC048F
S113049061E0812F0E949004812F90E0FC01E458D8
S11304A0FF4FE491E88BFC01E057FF4FE491F0E04B
S11304B0EE0FFF1FE255FF4F859194919A8B898B24
S11304C0DF91CF911F9108951F93CF93DF93EC0198
S11304D0162F60E0812F0E9490048E8D81FD04C050
S11304E061E0812F0E94CC041C87812F90E0FC01E5
S11304F0E458FF4FE491ED87FC01E057FF4FE4918E
S1130500F0E0EE0FFF1FEC55FF4F859194919F870C
S11305108E87DF91CF911F9108951F93CF93DF931F
S1130520EC01162F1B821A8288EE93E0A0E0B0E063
S11305308C839D83AE83BF8386E091E09983888317
S11305401F8A1E8A198E188E1B8E1A8E1D8E1C8E63
S11305508E8D8E7F20FB81F98E8F642FCE010E94B9
S11305603B02612FCE01DF91CF911F910C94640265
S11305701F920F920FB60F9211242F938F939F9374
S1130580EF93FF93E091B801F091B9018081E0917C
S1130590BE01F091BF0182FD12C090818091C10122
S11305A08F5F8F732091C201821751F0E091C101D6
S11305B0F0E0E855FE4F958F8093C10101C0808122
S11305C0FF91EF919F918F912F910F900FBE0F90FC
S11305D01F9018951F920F920FB60F9211242F930C
S11305E03F934F935F936F937F938F939F93AF93B7
S11305F0BF93EF93FF9388EA91E00E944605FF9131
S1130600EF91BF91AF919F918F917F916F915F9186
S11306104F913F912F910F900FBE0F901F901895FF
S113062088EA91E00E94FB0421E0892B09F420E090
S1130630822F0895E8EAF1E01382128288EE93E0B3
S1130640A0E0B0E084839583A683B78388E191E03A
S11306509183808385EC90E09587848784EC90E097
S11306609787868780EC90E0918B808B81EC90E07B
S1130670938B828B82EC90E0958B848B86EC90E05C
S1130680978B868B118E128E138E148E0895089577
S11306900E942C040E9447030E94A600C8E3D5E0F0
S11306A00E94E3002097E1F30E943805F9CFCF922E
S11306B0DF92EF92FF920F931F93CF93DF936C011E
S11306C07A018B01C0E0D0E0CE15DF0581F0D801BE
S11306D06D918D01D601ED91FC910190F081E02D99
S11306E0C6010995892B11F02196EECF7E01C70131
S11306F0DF91CF911F910F91FF90EF90DF90CF90FA
S113070008951F920F920FB60F9211242F933F93C7
S11307108F939F93AF93BF9380914602909147022A
S1130720A0914802B09149023091450223E0230F81
S11307302D3720F40196A11DB11D05C026E8230F15
S11307400296A11DB11D2093450280934602909309
S11307504702A0934802B093490280914A029091C3
S11307604B02A0914C02B0914D020196A11DB11D06
S113077080934A0290934B02A0934C02B0934D0293
S1130780BF91AF919F918F913F912F910F900FBE89
S11307900F901F9018953FB7F89480914A0290915A
S11307A04B02A0914C02B0914D0226B5A89B05C006
S11307B02F3F19F00196A11DB11D3FBFBA2FA92FDC
S11307C0982F8827820F911DA11DB11DBC01CD0159
S11307D042E0660F771F881F991F4A95D1F7089545
S11307E08F929F92AF92BF92CF92DF92EF92FF923D
S11307F06B017C010E94CB034B015C01C114D10449
S1130800E104F10401F10E94D0050E94CB03DC0154
S1130810CB0188199909AA09BB09883E9340A1050F
S1130820B10560F321E0C21AD108E108F10888EEAD
S1130830880E83E0981EA11CB11CC114D104E104EC
S1130840F10419F7DBCFFF90EF90DF90CF90BF90CA
S1130850AF909F908F900895789484B5826084BD02
S113086084B5816084BD85B5826085BD85B58160B0
S113087085BDEEE6F0E0808181608083E1E8F0E010
S11308801082808182608083808181608083E0E83F
S1130890F0E0808181608083E1EBF0E0808184601E
S11308A08083E0EBF0E0808181608083EAE7F0E020
S11308B08081846080838081826080838081816084
S11308C080838081806880831092C1000895833082
S11308D081F028F4813099F08230A1F008958730B6
S11308E0A9F08830B9F08430D1F4809180008F7DF4
S11308F003C0809180008F7780938000089584B531
S11309008F7702C084B58F7D84BD08958091B00037
S11309108F7703C08091B0008F7D8093B0000895DD
S1130920CF93DF9390E0FC01E458FF4F2491FC0146
S1130930E057FF4F8491882361F190E0880F991F5D
S1130940FC01E854FF4FC591D491FC01E255FF4FDF
S1130950A591B491611109C09FB7F894888120953D
S113096082238883EC912E230BC0623061F49FB7FD
S1130970F8948881322F309583238883EC912E2B31
S11309802C939FBF06C08FB7F894E8812E2B288341
S11309908FBFDF91CF9108951F93CF93DF93282FBB
S11309A030E0F901E859FF4F8491F901E458FF4F11
S11309B0D491F901E057FF4FC491CC23C1F0162F15
S11309C081110E946704EC2FF0E0EE0FFF1FE25547
S11309D0FF4FA591B4919FB7F894111104C08C9165
S11309E0D095D82302C0EC91DE2BDC939FBFDF911E
S11309F0CF911F910895FC01918D228D892F90E054
S1130A00805C9F4F821B91098F7399270895FC0185
S1130A10918D828D981731F0828DE80FF11D858DAF
S1130A2090E008958FEF9FEF0895FC01918D828DE2
S1130A30981761F0828DDF01A80FB11D5D968C912E
S1130A40928D9F5F9F73928F90E008958FEF9FEF39
S1130A500895FC01538D448D252F30E0842F90E0C0
S1130A60821B930B541710F0CF96089501970895A5
S1130A7080E193E0892B49F080E090E0892B29F014
S1130A800E94100381110C9400000895FC01848DD0
S1130A90DF01A80FB11DA35ABF4F2C91848D90E0A4
S1130AA001968F739927848FA689B7892C93A0897F
S1130AB0B1898C9180648C93938D848D981306C036
S1130AC00288F389E02D80818F7D80830895EF92E1
S1130AD0FF920F931F93CF93DF93EC0181E0888FF4
S1130AE09B8D8C8D981305C0E889F989808185FDDB
S1130AF024C0F62E0B8D10E00F5F1F4F0F731127CC
S1130B00E02E8C8DE8120CC00FB607FCFACFE889F2
S1130B10F989808185FFF5CFCE010E944605F1CF8A
S1130B208B8DFE01E80FF11DE35AFF4FF0820B8F0E
S1130B30EA89FB898081806207C0EE89FF8960832E
S1130B40E889F98980818064808381E090E0DF9185
S1130B50CF911F910F91FF90EF900895CF93DF9362
S1130B60EC01888D8823C9F0EA89FB89808185FDA1
S1130B7005C0A889B9898C9186FD0FC00FB607FC02
S1130B80F5CF808185FFF2CFA889B9898C9185FF43
S1130B90EDCFCE010E944605E7CFDF91CF910895B6
S1130BA0089597FB072E16F4009407D077FD09D01B
S1130BB00E94E50507FC05D03EF4909581959F4F72
S1130BC00895709561957F4F0895AA1BBB1B51E151
S1130BD007C0AA1FBB1FA617B70710F0A61BB70BA9
S1130BE0881F991F5A95A9F780959095BC01CD014E
S1130BF00895EE0FFF1F0590F491E02D099410E085
S1130C00C3E6D0E004C0FE010E94F9052196C43673
S10B0C10D107C9F7F894FFCFE6
S1130C1841540000000023015703FF0073018C01B5
S1130C280201740100000000670557032905AE0599
S1090C38FB04150507058D
S9030000FC
