S0140000646F6A6F5F70726F6A6563742E737265630E
S11300000C9463000C948B000C948B000C946C0186
S11300100C946C010C946C010C948B000C948B006C
S11300200C948B000C948B000C948B000C948B0020
S11300300C948B000C948B000C948B000C948B0010
S11300400C94A4020C948B000C948B000C948B00E5
S11300500C948B000C948B000C948B000C948B00F0
S11300600C948B000C948B0000000008000201002B
S1130070000304070000000000000000010204085F
S113008010204080010204081020010204081020FE
S1130090040404040404040402020202020203032A
S11300A003030303000000002300260029000000CE
S11300B00000250028002B00000000002400270079
S11300C02A00A600AD0011241FBECFEFD8E0DEBF8A
S11300D0CDBF11E0A0E0B1E0E0EFF7E002C0059091
S11300E00D92A231B107D9F721E0A2E1B1E001C03C
S11300F01D92AE37B207E1F710E0C2E6D0E004C0CB
S11301002197FE010E94E503C136D107C9F70E9479
S11301106B020C94EB030C9400008FEF8AB90895E2
S11301208FEF8BB92FEF84E39CE021508040904007
S1130130E1F700C000001BB82FEF84E39CE02150DE
S113014080409040E1F700C00000089520E041E0C5
S113015060E082E191E00C943F0282E191E00C9432
S1130160E60180E090E008952091730130917401DC
S113017028173907B9F49091310180913201981709
S113018089F0E0913101F0E0ED5CFE4F8081209137
S1130190310130E02F5F3F4F2F733327209331011C
S11301A090E008958FEF9FEF08951F93CF93DF930F
S11301B0DC015C968D919C915D97009739F421E068
S11301C030E013963C932E9312973BC05196ED91D9
S11301D0FC91529750962C915097322F30951FB71F
S11301E05E964C915E97742F727041FD6095F89401
S11301F04081772311F0422B01C043234083EC015B
S11302002197F1F748E0508160FF02C0522B01C0F2
S113021053235083EC012197F1F76695415099F7E8
S11302208081772319F08323808302C0282B2083C5
S11302301FBF5C968D919C915D970197F1F781E0CA
S113024090E0DF91CF911F9108950895209173015B
S1130250309174012817390771F49091310180911C
S11302603201981741F0E0913101F0E0ED5CFE4F6E
S1130270808190E008958FEF9FEF0895209173019E
S1130280309174012817390771F48091320120915B
S1130290310190E0805C9F4F821B910960E470E023
S11302A00E94BD03089580E090E00895E0917301F9
S11302B0F0917401E817F90769F4A389B4899C9152
S11302C08589809589238C9310927401109273010F
S11302D081E0089580E008951F920F920FB60F9267
S11302E011242F933F934F935F936F937F938F9337
S11302F09F93AF93BF93EF93FF93E0917301F091BA
S11303007401309709F451C0968DA685B78585850B
S113031091FF04C09C91892329F447C09C918923AF
S113032009F043C0A389B4899C9185898095892368
S11303308C93868997890197F1F7608D718DA685D5
S1130340B785558538E020E0CB010197F1F7822F7E
S113035090E095958795282F4C91452309F02068C6
S1130360315091F7868D81FD20958091320190E086
S113037001968F73992730913101381749F0A09174
S11303803201B0E0AD5CBE4F2C938093320103C0C8
S1130390868D8160868F828D938D0197F1F7A38975
S11303A0B4899C918589892B8C93FF91EF91BF919E
S11303B0AF919F918F917F916F915F914F913F91F9
S11303C02F910F900FBE0F901F90189524E031E0ED
S11303D0FC01318320830C9456011F93CF93DF9348
S11303E0EC01162F6E8D6695617081E06827812F70
S11303F00E948E0361E0812F0E945203812F90E0BE
S1130400FC01E458FF4FE491E88BFC01E057FF4FF7
S1130410E491F0E0EE0FFF1FE255FF4F85919491B8
S11304209A8B898BDF91CF911F9108951F93CF935E
S1130430DF93EC01162F60E0812F0E9452038E8D12
S113044081FD04C061E0812F0E948E031C87812FEF
S113045090E0FC01E458FF4FE491ED87FC01E05784
S1130460FF4FE491F0E0EE0FFF1FEC55FF4F859135
S113047094919F878E87DF91CF911F9108951F9349
S1130480CF93DF93EC01162F1B821A8288EE93E040
S1130490A0E0B0E08C839D83AE83BF8384E091E0D1
S11304A0998388831F8A1E8A198E188E1B8E1A8E32
S11304B01D8E1C8E8E8D8E7F20FB81F98E8F642F76
S11304C0CE010E94ED01612FCE01DF91CF911F91EA
S11304D00C94160208950E94EE020E946A020E9481
S11304E08D00C0E0D0E00E9490002097E1F30E94CC
S11304F00000F9CFCF92DF92EF92FF920F931F93F8
S1130500CF93DF936C017A018B01C0E0D0E0CE156C
S1130510DF0581F0D8016D918D01D601ED91FC913B
S11305200190F081E02DC6010995892B11F02196E7
S1130530EECF7E01C701DF91CF911F910F91FF9004
S1130540EF90DF90CF9008951F920F920FB60F9205
S113055011242F933F938F939F93AF93BF938091D5
S1130560760190917701A0917801B0917901309151
S1130570750123E0230F2D3720F40196A11DB11D31
S113058005C026E8230F0296A11DB11D2093750115
S11305908093760190937701A0937801B0937901C9
S11305A080917A0190917B01A0917C01B0917D01B1
S11305B00196A11DB11D80937A0190937B01A093B4
S11305C07C01B0937D01BF91AF919F918F913F9139
S11305D02F910F900FBE0F901F901895789484B5AB
S11305E0826084BD84B5816084BD85B5826085BD2B
S11305F085B5816085BDEEE6F0E080818160808311
S1130600E1E8F0E0108280818260808380818160F3
S11306108083E0E8F0E0808181608083E1EBF0E0BA
S1130620808184608083E0EBF0E08081816080835E
S1130630EAE7F0E080818460808380818260808347
S11306408081816080838081806880831092C10072
S11306500895833081F028F4813099F08230A1F03C
S113066008958730A9F08830B9F08430D1F48091AE
S113067080008F7D03C0809180008F7780938000FD
S1130680089584B58F7702C084B58F7D84BD0895A5
S11306908091B0008F7703C08091B0008F7D8093EC
S11306A0B0000895CF93DF9390E0FC01E458FF4F2E
S11306B02491FC01E057FF4F8491882361F190E07D
S11306C0880F991FFC01E854FF4FC591D491FC0198
S11306D0E255FF4FA591B491611109C09FB7F894F9
S11306E08881209582238883EC912E230BC062306D
S11306F061F49FB7F8948881322F309583238883DF
S1130700EC912E2B2C939FBF06C08FB7F894E881F1
S11307102E2B28838FBFDF91CF9108951F93CF9302
S1130720DF93282F30E0F901E859FF4F8491F90154
S1130730E458FF4FD491F901E057FF4FC491CC2303
S1130740C1F0162F81110E942903EC2FF0E0EE0F67
S1130750FF1FE255FF4FA591B4919FB7F894111173
S113076004C08C91D095D82302C0EC91DE2BDC938D
S11307709FBFDF91CF911F91089597FB072E16F429
S1130780009407D077FD09D00E94D10307FC05D05F
S11307903EF4909581959F4F0895709561957F4F94
S11307A00895AA1BBB1B51E107C0AA1FBB1FA617B4
S11307B0B70710F0A61BB70B881F991F5A95A9F706
S11307C080959095BC01CD010895EE0FFF1F059013
S11307D0F491E02D099410E0C2E6D0E004C0FE01DB
S11307E00E94E5032196C336D107C9F7F894FFCFD9
S11307F000000000D5007A02B10025013E01B400DA
S10508002601CB
S9030000FC
