:100000000C9464000C948C000C948C000C94E10112
:100010000C94E1010C94E1010C948C000C948C0084
:100020000C948C000C948C000C948C000C948C0020
:100030000C948C000C948C000C948C000C948C0010
:100040000C9461040C948C000C946D030C949F032D
:100050000C948C000C948C000C948C000C948C00F0
:100060000C948C000C948C0000000008000201002D
:100070000003040700000000000000000102040863
:100080001020408001020408102001020408102002
:10009000040404040404040402020202020203032E
:1000A00003030303000000002300260029000000D2
:1000B0000000250028002B0000000000240027007D
:1000C0002A00A200CF03B00011241FBECFEFD8E05A
:1000D000DEBFCDBF11E0A0E0B1E0EAE5FEE002C086
:1000E00005900D92AC35B107D9F722E0ACE5B1E04F
:1000F00001C01D92A438B207E1F710E0C3E6D0E0DA
:1001000004C02197FE010E941A07C136D107C9F722
:100110000E94FD030C9420070C94000040E855E277
:1001200060E070E08BE791E00E94DF0240E855E27A
:1001300060E070E08CE591E00E94DF028FEF87B90C
:100140008AB9089520E041E060E08BE791E00E94E9
:10015000B40220E043E062E08CE591E00C94B4024C
:100160008CE591E00E945B028BE791E00C945B02CE
:10017000CF93DF93C0E0D1E068818CE591E00E94ED
:10018000210169818CE591E0DF91CF910C942101EF
:100190008CE591E00E948A01892BD1F38CE591E0F6
:1001A0000C9400018CE591E00E948A01892BB1F446
:1001B00066E271E08BE791E00E944F040E94B80074
:1001C00064EC79E080E090E00E94D004EBCF0E94E4
:1001D000C8008B34910541F00E94D2000E94C800F3
:1001E0008F349105C9F7F3CF08950E94D20068EECD
:1001F00073E080E090E00C94D00480E090E00895FB
:100200002091DC013091DD0128173907B9F4909174
:100210009A0180919B01981789F0E0919A01F0E092
:10022000E456FE4F808120919A0130E02F5F3F4FCE
:100230002F73332720939A0190E008958FEF9FEF5B
:1002400008951F93CF93DF93DC015C968D919C9171
:100250005D97009739F421E030E013963C932E939C
:1002600012973BC05196ED91FC91529750962C916C
:100270005097322F30951FB75E964C915E97742F32
:10028000727041FD6095F8944081772311F0422B04
:1002900001C043234083EC012197F1F748E05081EE
:1002A00060FF02C0522B01C053235083EC01219701
:1002B000F1F76695415099F78081772319F08323F0
:1002C000808302C0282B20831FBF5C968D919C9158
:1002D0005D970197F1F781E090E0DF91CF911F9159
:1002E000089508952091DC013091DD012817390728
:1002F00071F490919A0180919B01981741F0E091DF
:100300009A01F0E0E456FE4F808190E008958FEF6F
:100310009FEF08952091DC013091DD012817390706
:1003200071F480919B0120919A0190E0805C9F4F35
:10033000821B910960E470E00E94B106089580E09C
:1003400090E00895E091DC01F091DD01E817F907F4
:1003500069F4A389B4899C918589809589238C93BC
:100360001092DD011092DC0181E0089580E0089593
:10037000CF93DF93EC018A8D9B8D892BF1F08091D7
:10038000DC019091DD01C817D907B9F0009711F091
:100390000E94A2018E8D8E7F8E8F10929B011092F3
:1003A0009A01D093DD01C093DC01EB89FC89908137
:1003B0008D89892B808381E001C080E0DF91CF911E
:1003C00008951F920F920FB60F9211242F933F930F
:1003D0004F935F936F937F938F939F93AF93BF934D
:1003E000EF93FF93E091DC01F091DD01309709F488
:1003F00051C0968DA685B785858591FF04C09C91D7
:10040000892329F447C09C91892309F043C0A3891B
:10041000B4899C918589809589238C938689978955
:100420000197F1F7608D718DA685B785558538E008
:1004300020E0CB010197F1F7822F90E09595879509
:10044000282F4C91452309F02068315091F7868D73
:1004500081FD209580919B0190E001968F739927F3
:1004600030919A01381749F0A0919B01B0E0A45651
:10047000BE4F2C9380939B0103C0868D8160868F35
:10048000828D938D0197F1F7A389B4899C91858919
:10049000892B8C93FF91EF91BF91AF919F918F9199
:1004A0007F916F915F914F913F912F910F900FBE70
:1004B0000F901F9018952DE231E0FC0131832083CD
:1004C0000C94A2011F93CF93DF93EC01162F6E8D36
:1004D0006695617081E06827812F0E94AC0561E01C
:1004E000812F0E947005812F90E0FC01E458FF4F9E
:1004F000E491E88BFC01E057FF4FE491F0E0EE0F50
:10050000FF1FE255FF4F859194919A8B898BDF9164
:10051000CF911F9108951F93CF93DF93EC01162F76
:1005200060E0812F0E9470058E8D81FD04C061E026
:10053000812F0E94AC051C87812F90E0FC01E458BC
:10054000FF4FE491ED87FC01E057FF4FE491F0E0AD
:10055000EE0FFF1FEC55FF4F859194919F878E877B
:10056000DF91CF911F9108951F93CF93DF93EC01FB
:10057000162F1B821A8288EE93E0A0E0B0E08C83F5
:100580009D83AE83BF838DE291E0998388831F8A28
:100590001E8A198E188E1B8E1A8E1D8E1C8E8E8DA5
:1005A0008E7F20FB81F98E8F642FCE010E94620224
:1005B000612FCE01DF91CF911F910C948B02CF93CD
:1005C000DF93EC019A01AB011B8E1A8E198E188EE7
:1005D0001F8A1E8A60E874E88EE190E00E94E706B8
:1005E000F9012430310518F0C901039702C081E0F8
:1005F00090E09D8F8C8F6C85663108F069C0C901D1
:10060000969587958431910510F0439702C081E05B
:1006100090E09F8B8E8B369718F0C901059702C02A
:1006200081E090E0998F888FC901880F991F280F6A
:10063000391F36952795369527952D30310518F0B9
:100640002C50310902C021E030E03B8F2A8F90917D
:100650006800683050F021E06E3008F420E081E05E
:1006600001C0880F2A95EAF701C084E0892B8093A6
:1006700068009C85983038F09E3040F0963148F004
:1006800020E030E008C02DE630E005C02BE630E089
:1006900002C02CE630E03C8B2B8B983030F481E0AC
:1006A00001C0880F9A95EAF70EC0292F30E09E30DE
:1006B00018F42850310902C02E50310981E001C0E0
:1006C000880F2A95EAF78D8B8C8D9D8D0197F1F718
:1006D000CE01DF91CF910C94B8011F920F920FB60B
:1006E0000F9211242F938F939F93EF93FF93E09199
:1006F000EE01F091EF018081E091F401F091F501BC
:1007000082FD12C090818091F7018F5F8F732091DD
:10071000F801821751F0E091F701F0E0E252FE4F4C
:10072000958F8093F70101C08081FF91EF919F9198
:100730008F912F910F900FBE0F901F9018951F92C1
:100740000F920FB60F9211242F933F934F935F9305
:100750006F937F938F939F93AF93BF93EF93FF9389
:100760008EED91E00E942606FF91EF91BF91AF912F
:100770009F918F917F916F915F914F913F912F91B9
:100780000F900FBE0F901F9018958EED91E00E9474
:10079000DB0521E0892B09F420E0822F0895EEED9E
:1007A000F1E01382128288EE93E0A0E0B0E084834F
:1007B0009583A683B7838EE491E09183808385EC53
:1007C00090E09587848784EC90E09787868780EC1B
:1007D00090E0918B808B81EC90E0938B828B82EC0C
:1007E00090E0958B848B86EC90E0978B868B118EB6
:1007F000128E138E148E089508950E940C050E9487
:10080000FC030E948E00C8E1D6E00E94F50020970C
:10081000E1F30E941806F9CFCF92DF92EF92FF9298
:100820000F931F93CF93DF936C017A018B01C0E08C
:10083000D0E0CE15DF0581F0D8016D918D01D60194
:10084000ED91FC910190F081E02DC6010995892B75
:1008500011F02196EECF7E01C701DF91CF911F915C
:100860000F91FF90EF90DF90CF9008956115710583
:1008700079F0FB0101900020E9F73197AF01461BA9
:10088000570BDC01ED91FC910280F381E02D09947E
:1008900080E090E008956BE371E00C9436040F93D0
:1008A0001F93CF93DF93EC010E9436048C01CE019D
:1008B0000E944B04800F911FDF91CF911F910F91E8
:1008C00008951F920F920FB60F9211242F933F930A
:1008D0008F939F93AF93BF9380917C0290917D0201
:1008E000A0917E02B0917F0230917B0223E0230F22
:1008F0002D3720F40196A11DB11D05C026E8230F58
:100900000296A11DB11D20937B0280937C029093DF
:100910007D02A0937E02B0937F028091800290912D
:100920008102A0918202B09183020196A11DB11DA6
:100930008093800290938102A0938202B0938302FD
:10094000BF91AF919F918F913F912F910F900FBECB
:100950000F901F9018953FB7F89480918002909166
:100960008102A0918202B091830226B5A89B05C0A6
:100970002F3F19F00196A11DB11D3FBFBA2FA92F1E
:10098000982F8827820F911DA11DB11DBC01CD019B
:1009900042E0660F771F881F991F4A95D1F7089587
:1009A0008F929F92AF92BF92CF92DF92EF92FF927F
:1009B0006B017C010E94AB044B015C01C114D104AA
:1009C000E104F10401F10E94B0060E94AB04DC01D5
:1009D000CB0188199909AA09BB09883E9340A10552
:1009E000B10560F321E0C21AD108E108F10888EEF0
:1009F000880E83E0981EA11CB11CC114D104E1042F
:100A0000F10419F7DBCFFF90EF90DF90CF90BF900C
:100A1000AF909F908F900895789484B5826084BD44
:100A200084B5816084BD85B5826085BD85B58160F2
:100A300085BDEEE6F0E0808181608083E1E8F0E052
:100A40001082808182608083808181608083E0E881
:100A5000F0E0808181608083E1EBF0E08081846060
:100A60008083E0EBF0E0808181608083EAE7F0E062
:100A700080818460808380818260808380818160C6
:100A800080838081806880831092C10008958330C4
:100A900081F028F4813099F08230A1F008958730F8
:100AA000A9F08830B9F08430D1F4809180008F7D36
:100AB00003C0809180008F7780938000089584B573
:100AC0008F7702C084B58F7D84BD08958091B0007A
:100AD0008F7703C08091B0008F7D8093B000089520
:100AE000CF93DF9390E0FC01E458FF4F2491FC0189
:100AF000E057FF4F8491882361F190E0880F991FA0
:100B0000FC01E854FF4FC591D491FC01E255FF4F21
:100B1000A591B491611109C09FB7F894888120957F
:100B200082238883EC912E230BC0623061F49FB73F
:100B3000F8948881322F309583238883EC912E2B73
:100B40002C939FBF06C08FB7F894E8812E2B288383
:100B50008FBFDF91CF9108951F93CF93DF93282FFD
:100B600030E0F901E859FF4F8491F901E458FF4F53
:100B7000D491F901E057FF4FC491CC23C1F0162F57
:100B800081110E944705EC2FF0E0EE0FFF1FE255A8
:100B9000FF4FA591B4919FB7F894111104C08C91A7
:100BA000D095D82302C0EC91DE2BDC939FBFDF9160
:100BB000CF911F910895FC01918D228D892F90E096
:100BC000805C9F4F821B91098F7399270895FC01C8
:100BD000918D828D981731F0828DE80FF11D858DF2
:100BE00090E008958FEF9FEF0895FC01918D828D25
:100BF000981761F0828DDF01A80FB11D5D968C9171
:100C0000928D9F5F9F73928F90E008958FEF9FEF7B
:100C10000895FC01538D448D252F30E0842F90E002
:100C2000821B930B541710F0CF96089501970895E7
:100C300085EC93E0892B49F080E090E0892B29F046
:100C40000E94C50381110C9400000895FC01848D5D
:100C5000DF01A80FB11DA35ABF4F2C91848D90E0E6
:100C600001968F739927848FA689B7892C93A089C1
:100C7000B1898C9180648C93938D848D981306C078
:100C80000288F389E02D80818F7D80830895EF9223
:100C9000FF920F931F93CF93DF93EC0181E0888F36
:100CA0009B8D8C8D981305C0E889F989808185FD1D
:100CB00024C0F62E0B8D10E00F5F1F4F0F7311270E
:100CC000E02E8C8DE8120CC00FB607FCFACFE88935
:100CD000F989808185FFF5CFCE010E942606F1CFEC
:100CE0008B8DFE01E80FF11DE35AFF4FF0820B8F51
:100CF000EA89FB898081806207C0EE89FF89608371
:100D0000E889F98980818064808381E090E0DF91C7
:100D1000CF911F910F91FF90EF900895CF93DF93A4
:100D2000EC01888D8823C9F0EA89FB89808185FDE3
:100D300005C0A889B9898C9186FD0FC00FB607FC44
:100D4000F5CF808185FFF2CFA889B9898C9185FF85
:100D5000EDCFCE010E942606E7CFDF91CF91089517
:100D6000089597FB072E16F4009407D077FD09D05D
:100D70000E94060707FC05D03EF4909581959F4F91
:100D80000895709561957F4F0895A1E21A2EAA1BD0
:100D9000BB1BFD010DC0AA1FBB1FEE1FFF1FA2172B
:100DA000B307E407F50720F0A21BB30BE40BF50B28
:100DB000661F771F881F991F1A9469F760957095B1
:100DC000809590959B01AC01BD01CF010895052E42
:100DD00097FB1EF400940E94FE0657FD07D00E9468
:100DE000C50607FC03D04EF40C94FE0650954095C2
:100DF000309521953F4F4F4F5F4F089590958095C7
:100E0000709561957F4F8F4F9F4F0895AA1BBB1B15
:100E100051E107C0AA1FBB1FA617B70710F0A61BFA
:100E2000B70B881F991F5A95A9F780959095BC011B
:100E3000CD010895EE0FFF1F0590F491E02D099468
:100E400010E0C3E6D0E004C0FE010E941A0721961C
:0A0E5000C436D107C9F7F894FFCFAC
:100E5A004154426561636F6E3A00555549443A20E0
:100E6A00004D414A4F523A2000525353493A20000A
:100E7A002D0064626D00646F000000000021010C07
:100E8A0004FD0071018A01000172010D0A006E6100
:100E9A006E00696E66006F76660000000000470605
:0C0EAA000C0409068E06DB05F505E705C3
:00000001FF
