S0140000646F6A6F5F70726F6A6563742E737265630E
S11300000C9464000C948C000C948C000C941802D6
S11300100C9418020C9418020C948C000C948C0010
S11300200C948C000C948C000C948C000C948C001C
S11300300C948C000C948C000C948C000C948C000C
S11300400C94DF030C948C000C9416030C9448035A
S11300500C948C000C948C000C948C000C948C00EC
S11300600C948C000C948C00000000080002010029
S1130070000304070000000000000000010204085F
S113008010204080010204081020010204081020FE
S1130090040404040404040402020202020203032A
S11300A003030303000000002300260029000000CE
S11300B00000250028002B00000000002400270079
S11300C02A0047017803550111241FBECFEFD8E061
S11300D0DEBFCDBF11E0A0E0B1E0E0E1FCE002C092
S11300E005900D92A432B107D9F722E0A4E2B1E061
S11300F001C01D92AC34B207E1F710E0C3E6D0E0D2
S113010004C02197FE010E94F505C136D107C9F745
S11301100E94A6030C94FB050C9400000F931F93FC
S1130120CF938C0160E08DE00E94C90487ED9EE0CE
S11301300197F1F700C00000C0E187EC90E001975F
S1130140F1F700C0000060E08DE00E94C90460E0A7
S11301508CE00E94C90417FF04C061E08CE00E9497
S1130160C90487EC90E00197F1F700C0000061E05A
S11301708DE00E94C904000F111FC150F1F6CF9108
S11301801F910F91089560E089E00E94C9042FEF48
S113019080E792E0215080409040E1F700C00000E9
S11301A061E089E00E94C9042FEF84E39CE02150C0
S11301B080409040E1F700C00000089561E089E0CC
S11301C00E948D0460E089E00E94C90461E08CE033
S11301D00E948D0461E08CE00E94C90461E08DE01E
S11301E00E948D0461E08DE00C94C9048FEF87B9FF
S11301F08AB984B98AE188B915B80E94DE0061E041
S113020084E00C948D040E94C3002FEF80E792E0F9
S1130210215080409040E1F700C0000082EF9FEF42
S11302200E948E002FEF80E792E0215080409040A2
S1130230E1F700C0000080E090E00E948E008EEFA5
S11302409FEF0E948E0061E084E00E94C9042FEFBA
S113025084E39CE0215080409040E1F700C000001E
S113026060E084E00E94C9042FEF84E39CE0215005
S113027080409040E1F700C000002FEF83E294EF4C
S1130280215080409040E1F700C00000089520E034
S113029041E060E083E491E00E94EB0220E043E06F
S11302A062E084E291E00C94EB0284E291E00E942B
S11302B0920283E491E00C94920280E090E008952D
S11302C02091A4013091A50128173907B9F4909120
S11302D0620180916301981789F0E0916201F0E076
S11302E0EC59FE4F80812091620130E02F5F3F4F37
S11302F02F7333272093620190E008958FEF9FEFCF
S113030008951F93CF93DF93DC015C968D919C91AC
S11303105D97009739F421E030E013963C932E93D7
S113032012973BC05196ED91FC91529750962C91A7
S11303305097322F30951FB75E964C915E97742F6D
S1130340727041FD6095F8944081772311F0422B3F
S113035001C043234083EC012197F1F748E0508129
S113036060FF02C0522B01C053235083EC0121973C
S1130370F1F76695415099F78081772319F083232B
S1130380808302C0282B20831FBF5C968D919C9193
S11303905D970197F1F781E090E0DF91CF911F9194
S11303A0089508952091A4013091A50128173907D3
S11303B071F49091620180916301981741F0E0918A
S11303C06201F0E0EC59FE4F808190E008958FEFD8
S11303D09FEF08952091A4013091A50128173907B2
S11303E071F4809163012091620190E0805C9F4FE1
S11303F0821B910960E470E00E94CD05089580E0BD
S113040090E00895E091A401F091A501E817F9079F
S113041069F4A389B4899C918589809589238C93F7
S11304201092A5011092A40181E0089580E008953E
S11304301F920F920FB60F9211242F933F934F9355
S11304405F936F937F938F939F93AF93BF93EF9338
S1130450FF93E091A401F091A501309709F451C0F4
S1130460968DA685B785858591FF04C09C918923C7
S113047029F447C09C91892309F043C0A389B48916
S11304809C918589809589238C9386899789019786
S1130490F1F7608D718DA685B785558538E020E02C
S11304A0CB010197F1F7822F90E095958795282F3E
S11304B04C91452309F02068315091F7868D81FDD8
S11304C020958091630190E001968F739927309174
S11304D06201381749F0A0916301B0E0AC59BE4FF6
S11304E02C938093630103C0868D8160868F828DF7
S11304F0938D0197F1F7A389B4899C918589892B00
S11305008C93FF91EF91BF91AF919F918F917F91C8
S11305106F915F914F913F912F910F900FBE0F906C
S11305201F90189524E031E0FC01318320830C9462
S113053002021F93CF93DF93EC01162F6E8D669505
S1130540617081E06827812F0E94C90461E0812FD6
S11305500E948D04812F90E0FC01E458FF4FE49148
S1130560E88BFC01E057FF4FE491F0E0EE0FFF1F32
S1130570E255FF4F859194919A8B898BDF91CF91AE
S11305801F9108951F93CF93DF93EC01162F60E022
S1130590812F0E948D048E8D81FD04C061E0812F26
S11305A00E94C9041C87812F90E0FC01E458FF4F8E
S11305B0E491ED87FC01E057FF4FE491F0E0EE0F8A
S11305C0FF1FEC55FF4F859194919F878E87DF9194
S11305D0CF911F9108951F93CF93DF93EC01162FB2
S11305E01B821A8288EE93E0A0E0B0E08C839D83A6
S11305F0AE83BF8384E091E0998388831F8A1E8A37
S1130600198E188E1B8E1A8E1D8E1C8E8E8D8E7FCB
S113061020FB81F98E8F642FCE010E949902612FF5
S1130620CE01DF91CF911F910C94C2021F920F92C1
S11306300FB60F9211242F938F939F93EF93FF93F1
S1130640E091B601F091B7018081E091BC01F09195
S1130650BD0182FD12C090818091BF018F5F8F73B5
S11306602091C001821751F0E091BF01F0E0EA55FA
S1130670FE4F958F8093BF0101C08081FF91EF9160
S11306809F918F912F910F900FBE0F901F901895EF
S11306901F920F920FB60F9211242F933F934F93F3
S11306A05F936F937F938F939F93AF93BF93EF93D6
S11306B0FF9386EA91E00E944305FF91EF91BF9179
S11306C0AF919F918F917F916F915F914F913F91E6
S11306D02F910F900FBE0F901F90189586EA91E00E
S11306E00E94F80421E0892B09F420E0822F089568
S11306F0E6EAF1E01382128288EE93E0A0E0B0E033
S113070084839583A683B78386E191E09183808374
S113071085EC90E09587848784EC90E097878687C2
S113072080EC90E0918B808B81EC90E0938B828BBA
S113073082EC90E0958B848B86EC90E0978B868B93
S1130740118E128E138E148E089508950E9429041A
S11307500E94A5030E94F600C5E3D5E00E940301B0
S11307602097E1F30E943505F9CFCF92DF92EF9203
S1130770FF920F931F93CF93DF936C017A018B0148
S1130780C0E0D0E0CE15DF0581F0D8016D918D0178
S1130790D601ED91FC910190F081E02DC6010995FF
S11307A0892B11F02196EECF7E01C701DF91CF9105
S11307B01F910F91FF90EF90DF90CF9008951F92BB
S11307C00F920FB60F9211242F933F938F939F9301
S11307D0AF93BF938091440290914502A091460249
S11307E0B09147023091430223E0230F2D3720F4C8
S11307F00196A11DB11D05C026E8230F0296A11D77
S1130800B11D209343028093440290934502A09328
S11308104602B09347028091480290914902A09108
S11308204A02B0914B020196A11DB11D809348026A
S113083090934902A0934A02B0934B02BF91AF91A7
S11308409F918F913F912F910F900FBE0F901F900A
S11308501895789484B5826084BD84B5816084BD24
S113086085B5826085BD85B5816085BDEEE6F0E025
S1130870808181608083E1E8F0E010828081826081
S11308808083808181608083E0E8F0E08081816002
S11308908083E1EBF0E0808184608083E0EBF0E032
S11308A0808181608083EAE7F0E0808184608083D6
S11308B08081826080838081816080838081806880
S11308C080831092C1000895833081F028F4813030
S11308D099F08230A1F008958730A9F08830B9F0FA
S11308E08430D1F4809180008F7D03C0809180009A
S11308F08F7780938000089584B58F7702C084B584
S11309008F7D84BD08958091B0008F7703C080915E
S1130910B0008F7D8093B0000895CF93DF9390E073
S1130920FC01E458FF4F2491FC01E057FF4F8491F0
S1130930882361F190E0880F991FFC01E854FF4F70
S1130940C591D491FC01E255FF4FA591B491611179
S113095009C09FB7F8948881209582238883EC91FD
S11309602E230BC0623061F49FB7F8948881322F34
S1130970309583238883EC912E2B2C939FBF06C044
S11309808FB7F894E8812E2B28838FBFDF91CF9106
S113099008951F93CF93DF93282F30E0F901E8598E
S11309A0FF4F8491F901E458FF4FD491F901E057C6
S11309B0FF4FC491CC23C1F0162F81110E9464040F
S11309C0EC2FF0E0EE0FFF1FE255FF4FA591B4911D
S11309D09FB7F894111104C08C91D095D82302C00C
S11309E0EC91DE2BDC939FBFDF91CF911F91089593
S11309F0FC01918D228D892F90E0805C9F4F821B9A
S1130A0091098F7399270895FC01918D828D981710
S1130A1031F0828DE80FF11D858D90E008958FEF00
S1130A209FEF0895FC01918D828D981761F0828D5E
S1130A30DF01A80FB11D5D968C91928D9F5F9F730E
S1130A40928F90E008958FEF9FEF0895FC01538DEE
S1130A50448D252F30E0842F90E0821B930B541794
S1130A6010F0CF960895019708958EE693E0892BB0
S1130A7049F080E090E0892B29F00E946E038111F7
S1130A800C9400000895FC01848DDF01A80FB11DB2
S1130A90A35ABF4F2C91848D90E001968F739927B0
S1130AA0848FA689B7892C93A089B1898C9180649D
S1130AB08C93938D848D981306C00288F389E02D5E
S1130AC080818F7D80830895EF92FF920F931F930F
S1130AD0CF93DF93EC0181E0888F9B8D8C8D9813ED
S1130AE005C0E889F989808185FD24C0F62E0B8D27
S1130AF010E00F5F1F4F0F731127E02E8C8DE8124B
S1130B000CC00FB607FCFACFE889F989808185FF0C
S1130B10F5CFCE010E944305F1CF8B8DFE01E80F86
S1130B20F11DE35AFF4FF0820B8FEA89FB89808124
S1130B30806207C0EE89FF896083E889F989808132
S1130B408064808381E090E0DF91CF911F910F91C9
S1130B50FF90EF900895CF93DF93EC01888D882365
S1130B60C9F0EA89FB89808185FD05C0A889B98916
S1130B708C9186FD0FC00FB607FCF5CF808185FFF1
S1130B80F2CFA889B9898C9185FFEDCFCE010E945F
S1130B904305E7CFDF91CF91089597FB072E16F415
S1130BA0009407D077FD09D00E94E10507FC05D029
S1130BB03EF4909581959F4F0895709561957F4F70
S1130BC00895AA1BBB1B51E107C0AA1FBB1FA61790
S1130BD0B70710F0A61BB70B881F991F5A95A9F7E2
S1130BE080959095BC01CD010895EE0FFF1F0590EF
S1130BF0F491E02D099410E0C3E6D0E004C0FE01B6
S1130C000E94F5052196C436D107C9F7F894FFCFA1
S1130C10000000008101B5035D01D101EA0160011A
S1130C20D201000000006405B5032605AB05F804F5
S1070C30120504059C
S9030000FC
